01000000000000ALABAMA                                                         3                              01                444710000                                                             00
02000000000000ALASKA                                                          4                              02                 62693200                                                             00
03000000000000ARIZONA                                                         4                              04                513063200                                                             00
04000000000000ARKANSAS                                                        3                              05                267340000                                                             00
05000000000000CALIFORNIA                                                      4                              06               3387164800                                                             00
06000000000000COLORADO                                                        4                              08                430126100                                                             00
07000000000000CONNECTICUT                                                     1                              09                340556500                                                             00
08000000000000DELAWARE                                                        3                              10                 78360000                                                             00
10000000000000FLORIDA                                                         3                              12               1598237800                                                             00
11000000000000GEORGIA                                                         3                              13                818645300                                                             00
12000000000000HAWAII                                                          4                              15                121153700                                                             00
13000000000000IDAHO                                                           4                              16                129395300                                                             00
14000000000000ILLINOIS                                                        2                              17               1241929300                                                             00
15000000000000INDIANA                                                         2                              18                608048500                                                             00
16000000000000IOWA                                                            2                              19                292632400                                                             00
17000000000000KANSAS                                                          2                              20                268841800                                                             00
18000000000000KENTUCKY                                                        3                              21                404176900                                                             00
19000000000000LOUISIANA                                                       3                              22                446897600                                                             00
20000000000000MAINE                                                           1                              23                127492300                                                             00
21000000000000MARYLAND                                                        3                              24                529648600                                                             00
22000000000000MASSACHUSETTS                                                   1                              25                634909700                                                             00
23000000000000MICHIGAN                                                        2                              26                993844400                                                             00
24000000000000MINNESOTA                                                       2                              27                491947900                                                             00
25000000000000MISSISSIPPI                                                     3                              28                284465800                                                             00
26000000000000MISSOURI                                                        2                              29                559521100                                                             00
27000000000000MONTANA                                                         4                              30                 90219500                                                             00
28000000000000NEBRASKA                                                        2                              31                171126300                                                             00
29000000000000NEVADA                                                          4                              32                199825700                                                             00
30000000000000NEW HAMPSHIRE                                                   1                              33                123578600                                                             00
31000000000000NEW JERSEY                                                      1                              34                841435000                                                             00
32000000000000NEW MEXICO                                                      4                              35                181904600                                                             00
33000000000000NEW YORK                                                        1                              36               1897645700                                                             00
34000000000000NORTH CAROLINA                                                  3                              37                804931300                                                             00
35000000000000NORTH DAKOTA                                                    2                              38                 64220000                                                             00
36000000000000OHIO                                                            2                              39               1135314000                                                             00
37000000000000OKLAHOMA                                                        3                              40                345065400                                                             00
38000000000000OREGON                                                          4                              41                342139900                                                             00
39000000000000PENNSYLVANIA                                                    1                              42               1228105400                                                             00
40000000000000RHODE ISLAND                                                    1                              44                104831900                                                             00
41000000000000SOUTH CAROLINA                                                  3                              45                401201200                                                             00
42000000000000SOUTH DAKOTA                                                    2                              46                 75484400                                                             00
43000000000000TENNESSEE                                                       3                              47                568928300                                                             00
44000000000000TEXAS                                                           3                              48               2085182000                                                             00
45000000000000UTAH                                                            4                              49                223316900                                                             00
46000000000000VERMONT                                                         1                              50                 60882700                                                             00
47000000000000VIRGINIA                                                        3                              51                707851500                                                             00
48000000000000WASHINGTON                                                      4                              53                589412100                                                             00
49000000000000WEST VIRGINIA                                                   3                              54                180834400                                                             00
50000000000000WISCONSIN                                                       2                              55                536367500                                                             00
51000000000000WYOMING                                                         4                              56                 49378200                                                             00
