01000000000000ALABAMA                                                         3                              01                447889602                                                             02
02000000000000ALASKA                                                          4                              02                 64148202                                                             02
03000000000000ARIZONA                                                         4                              04                544112502                                                             02
04000000000000ARKANSAS                                                        3                              05                270626802                                                             02
05000000000000CALIFORNIA                                                      4                              06               3500198602                                                             02
06000000000000COLORADO                                                        4                              08                450105102                                                             02
07000000000000CONNECTICUT                                                     1                              09                345858702                                                             02
08000000000000DELAWARE                                                        3                              10                 80595402                                                             02
10000000000000FLORIDA                                                         3                              12               1669170102                                                             02
11000000000000GEORGIA                                                         3                              13                854400502                                                             02
12000000000000HAWAII                                                          4                              15                124066302                                                             02
13000000000000IDAHO                                                           4                              16                134312402                                                             02
14000000000000ILLINOIS                                                        2                              17               1258644702                                                             02
15000000000000INDIANA                                                         2                              18                615691302                                                             02
16000000000000IOWA                                                            2                              19                293584002                                                             02
17000000000000KANSAS                                                          2                              20                271176902                                                             02
18000000000000KENTUCKY                                                        3                              21                408982202                                                             02
19000000000000LOUISIANA                                                       3                              22                447619202                                                             02
20000000000000MAINE                                                           1                              23                129489402                                                             02
21000000000000MARYLAND                                                        3                              24                545052502                                                             02
22000000000000MASSACHUSETTS                                                   1                              25                642180002                                                             02
23000000000000MICHIGAN                                                        2                              26               1004322102                                                             02
24000000000000MINNESOTA                                                       2                              27                502479102                                                             02
25000000000000MISSISSIPPI                                                     3                              28                286673302                                                             02
26000000000000MISSOURI                                                        2                              29                566954402                                                             02
27000000000000MONTANA                                                         4                              30                 91037202                                                             02
28000000000000NEBRASKA                                                        2                              31                172756402                                                             02
29000000000000NEVADA                                                          4                              32                216754402                                                             02
30000000000000NEW HAMPSHIRE                                                   1                              33                127440502                                                             02
31000000000000NEW JERSEY                                                      1                              34                857525202                                                             02
32000000000000NEW MEXICO                                                      4                              35                185204402                                                             02
33000000000000NEW YORK                                                        1                              36               1913429302                                                             02
34000000000000NORTH CAROLINA                                                  3                              37                830582002                                                             02
35000000000000NORTH DAKOTA                                                    2                              38                 63391102                                                             02
36000000000000OHIO                                                            2                              39               1140869902                                                             02
37000000000000OKLAHOMA                                                        3                              40                348970002                                                             02
38000000000000OREGON                                                          4                              41                352035502                                                             02
39000000000000PENNSYLVANIA                                                    1                              42               1232882702                                                             02
40000000000000RHODE ISLAND                                                    1                              44                106832602                                                             02
41000000000000SOUTH CAROLINA                                                  3                              45                410377002                                                             02
42000000000000SOUTH DAKOTA                                                    2                              46                 76043702                                                             02
43000000000000TENNESSEE                                                       3                              47                578979602                                                             02
44000000000000TEXAS                                                           3                              48               2173692502                                                             02
45000000000000UTAH                                                            4                              49                231878902                                                             02
46000000000000VERMONT                                                         1                              50                 61640802                                                             02
47000000000000VIRGINIA                                                        3                              51                728782902                                                             02
48000000000000WASHINGTON                                                      4                              53                606706002                                                             02
49000000000000WEST VIRGINIA                                                   3                              54                180488402                                                             02
50000000000000WISCONSIN                                                       2                              55                543969202                                                             02
51000000000000WYOMING                                                         4                              56                 49883002                                                             02
