01000000000000ALABAMA                                                         3                              01                455780805                                                             06
02000000000000ALASKA                                                          4                              02                 66366105                                                             06
03000000000000ARIZONA                                                         4                              04                593929205                                                             06
04000000000000ARKANSAS                                                        3                              05                277915405                                                             06
05000000000000CALIFORNIA                                                      4                              06               3613214705                                                             06
06000000000000COLORADO                                                        4                              08                466517705                                                             06
07000000000000CONNECTICUT                                                     1                              09                351029705                                                             06
08000000000000DELAWARE                                                        3                              10                 84352405                                                             06
10000000000000FLORIDA                                                         3                              12               1778986405                                                             06
11000000000000GEORGIA                                                         3                              13                907257605                                                             06
12000000000000HAWAII                                                          4                              15                127519405                                                             06
13000000000000IDAHO                                                           4                              16                142909605                                                             06
14000000000000ILLINOIS                                                        2                              17               1276337105                                                             06
15000000000000INDIANA                                                         2                              18                627197305                                                             06
16000000000000IOWA                                                            2                              19                296633405                                                             06
17000000000000KANSAS                                                          2                              20                274468705                                                             06
18000000000000KENTUCKY                                                        3                              21                417340505                                                             06
19000000000000LOUISIANA                                                       3                              22                452362805                                                             06
20000000000000MAINE                                                           1                              23                132150505                                                             06
21000000000000MARYLAND                                                        3                              24                560038805                                                             06
22000000000000MASSACHUSETTS                                                   1                              25                639874305                                                             06
23000000000000MICHIGAN                                                        2                              26               1012086005                                                             06
24000000000000MINNESOTA                                                       2                              27                513279905                                                             06
25000000000000MISSISSIPPI                                                     3                              28                292108805                                                             06
26000000000000MISSOURI                                                        2                              29                580031005                                                             06
27000000000000MONTANA                                                         4                              30                 93567005                                                             06
28000000000000NEBRASKA                                                        2                              31                175878705                                                             06
29000000000000NEVADA                                                          4                              32                241480705                                                             06
30000000000000NEW HAMPSHIRE                                                   1                              33                130994005                                                             06
31000000000000NEW JERSEY                                                      1                              34                871792505                                                             06
32000000000000NEW MEXICO                                                      4                              35                192838405                                                             06
33000000000000NEW YORK                                                        1                              36               1925463005                                                             06
34000000000000NORTH CAROLINA                                                  3                              37                868324205                                                             06
35000000000000NORTH DAKOTA                                                    2                              38                 63667705                                                             06
36000000000000OHIO                                                            2                              39               1146404205                                                             06
37000000000000OKLAHOMA                                                        3                              40                354788405                                                             06
38000000000000OREGON                                                          4                              41                364105605                                                             06
39000000000000PENNSYLVANIA                                                    1                              42               1242961605                                                             06
40000000000000RHODE ISLAND                                                    1                              44                107618905                                                             06
41000000000000SOUTH CAROLINA                                                  3                              45                425508305                                                             06
42000000000000SOUTH DAKOTA                                                    2                              46                 77593305                                                             06
43000000000000TENNESSEE                                                       3                              47                596295905                                                             06
44000000000000TEXAS                                                           3                              48               2285996805                                                             06
45000000000000UTAH                                                            4                              49                246958505                                                             06
46000000000000VERMONT                                                         1                              50                 62305005                                                             06
47000000000000VIRGINIA                                                        3                              51                756746505                                                             06
48000000000000WASHINGTON                                                      4                              53                628775905                                                             06
49000000000000WEST VIRGINIA                                                   3                              54                181685605                                                             06
50000000000000WISCONSIN                                                       2                              55                553620105                                                             06
51000000000000WYOMING                                                         4                              56                 50929405                                                             06
