01000000000000ALABAMA                                                         3                              01                462659507                                                             08
02000000000000ALASKA                                                          4                              02                 68111107                                                             08
03000000000000ARIZONA                                                         4                              04                635342107                                                             08
04000000000000ARKANSAS                                                        3                              05                283055707                                                             08
05000000000000CALIFORNIA                                                      4                              06               3637753407                                                             08
06000000000000COLORADO                                                        4                              08                484277007                                                             08
07000000000000CONNECTICUT                                                     1                              09                348986807                                                             08
08000000000000DELAWARE                                                        3                              10                 86195307                                                             08
10000000000000FLORIDA                                                         3                              12               1819952607                                                             08
11000000000000GEORGIA                                                         3                              13                952329707                                                             08
12000000000000HAWAII                                                          4                              15                127735607                                                             08
13000000000000IDAHO                                                           4                              16                149614507                                                             08
14000000000000ILLINOIS                                                        2                              17               1282580907                                                             08
15000000000000INDIANA                                                         2                              18                633586207                                                             08
16000000000000IOWA                                                            2                              19                298336007                                                             08
17000000000000KANSAS                                                          2                              20                277738207                                                             08
18000000000000KENTUCKY                                                        3                              21                423630807                                                             08
19000000000000LOUISIANA                                                       3                              22                437331007                                                             08
20000000000000MAINE                                                           1                              23                131539807                                                             08
21000000000000MARYLAND                                                        3                              24                561889907                                                             08
22000000000000MASSACHUSETTS                                                   1                              25                646791507                                                             08
23000000000000MICHIGAN                                                        2                              26               1004979007                                                             08
24000000000000MINNESOTA                                                       2                              27                518236007                                                             08
25000000000000MISSISSIPPI                                                     3                              28                292103007                                                             08
26000000000000MISSOURI                                                        2                              29                587839907                                                             08
27000000000000MONTANA                                                         4                              30                 95662407                                                             08
28000000000000NEBRASKA                                                        2                              31                176947307                                                             08
29000000000000NEVADA                                                          4                              32                255434407                                                             08
30000000000000NEW HAMPSHIRE                                                   1                              33                131225607                                                             08
31000000000000NEW JERSEY                                                      1                              34                865312607                                                             08
32000000000000NEW MEXICO                                                      4                              35                196440207                                                             08
33000000000000NEW YORK                                                        1                              36               1942931607                                                             08
34000000000000NORTH CAROLINA                                                  3                              37                904159407                                                             08
35000000000000NORTH DAKOTA                                                    2                              38                 63790407                                                             08
36000000000000OHIO                                                            2                              39               1147764107                                                             08
37000000000000OKLAHOMA                                                        3                              40                360812307                                                             08
38000000000000OREGON                                                          4                              41                373554907                                                             08
39000000000000PENNSYLVANIA                                                    1                              42               1241993007                                                             08
40000000000000RHODE ISLAND                                                    1                              44                105313607                                                             08
41000000000000SOUTH CAROLINA                                                  3                              45                440491407                                                             08
42000000000000SOUTH DAKOTA                                                    2                              46                 79568907                                                             08
43000000000000TENNESSEE                                                       3                              47                614911607                                                             08
44000000000000TEXAS                                                           3                              48               2384343207                                                             08
45000000000000UTAH                                                            4                              49                266892507                                                             08
46000000000000VERMONT                                                         1                              50                 62074807                                                             08
47000000000000VIRGINIA                                                        3                              51                769877507                                                             08
48000000000000WASHINGTON                                                      4                              53                644951107                                                             08
49000000000000WEST VIRGINIA                                                   3                              54                180983607                                                             08
50000000000000WISCONSIN                                                       2                              55                559889307                                                             08
51000000000000WYOMING                                                         4                              56                 52325207                                                             08
