01000000000000ALABAMA                                                         3                              01                477973610                                                             09
02000000000000ALASKA                                                          4                              02                 71023110                                                             09
03000000000000ARIZONA                                                         4                              04                639201710                                                             09
04000000000000ARKANSAS                                                        3                              05                291591810                                                             09
05000000000000CALIFORNIA                                                      4                              06               3725395610                                                             09
06000000000000COLORADO                                                        4                              08                502919610                                                             09
07000000000000CONNECTICUT                                                     1                              09                357409710                                                             09
08000000000000DELAWARE                                                        3                              10                 89793410                                                             09
10000000000000FLORIDA                                                         3                              12               1880131010                                                             09
11000000000000GEORGIA                                                         3                              13                968765310                                                             09
12000000000000HAWAII                                                          4                              15                136030110                                                             09
13000000000000IDAHO                                                           4                              16                156758210                                                             09
14000000000000ILLINOIS                                                        2                              17               1283063210                                                             09
15000000000000INDIANA                                                         2                              18                648380210                                                             09
16000000000000IOWA                                                            2                              19                304635510                                                             09
17000000000000KANSAS                                                          2                              20                285311810                                                             09
18000000000000KENTUCKY                                                        3                              21                433936710                                                             09
19000000000000LOUISIANA                                                       3                              22                453337210                                                             09
20000000000000MAINE                                                           1                              23                132836110                                                             09
21000000000000MARYLAND                                                        3                              24                577355210                                                             09
22000000000000MASSACHUSETTS                                                   1                              25                654762910                                                             09
23000000000000MICHIGAN                                                        2                              26                988364010                                                             09
24000000000000MINNESOTA                                                       2                              27                530392510                                                             09
25000000000000MISSISSIPPI                                                     3                              28                296729710                                                             09
26000000000000MISSOURI                                                        2                              29                598892710                                                             09
27000000000000MONTANA                                                         4                              30                 98941510                                                             09
28000000000000NEBRASKA                                                        2                              31                182634110                                                             09
29000000000000NEVADA                                                          4                              32                270055110                                                             09
30000000000000NEW HAMPSHIRE                                                   1                              33                131647010                                                             09
31000000000000NEW JERSEY                                                      1                              34                879189410                                                             09
32000000000000NEW MEXICO                                                      4                              35                205917910                                                             09
33000000000000NEW YORK                                                        1                              36               1937810210                                                             09
34000000000000NORTH CAROLINA                                                  3                              37                953548310                                                             09
35000000000000NORTH DAKOTA                                                    2                              38                 67259110                                                             09
36000000000000OHIO                                                            2                              39               1153650410                                                             09
37000000000000OKLAHOMA                                                        3                              40                375135110                                                             09
38000000000000OREGON                                                          4                              41                383107410                                                             09
39000000000000PENNSYLVANIA                                                    1                              42               1270237910                                                             09
40000000000000RHODE ISLAND                                                    1                              44                105256710                                                             09
41000000000000SOUTH CAROLINA                                                  3                              45                462536410                                                             09
42000000000000SOUTH DAKOTA                                                    2                              46                 81418010                                                             09
43000000000000TENNESSEE                                                       3                              47                634610510                                                             09
44000000000000TEXAS                                                           3                              48               2514556110                                                             09
45000000000000UTAH                                                            4                              49                276388510                                                             09
46000000000000VERMONT                                                         1                              50                 62574110                                                             09
47000000000000VIRGINIA                                                        3                              51                800102410                                                             09
48000000000000WASHINGTON                                                      4                              53                672454010                                                             09
49000000000000WEST VIRGINIA                                                   3                              54                185299410                                                             09
50000000000000WISCONSIN                                                       2                              55                568698610                                                             09
51000000000000WYOMING                                                         4                              56                 56362610                                                             09
