01000000000000ALABAMA                                                         3                              01                413755392              1                                              92
02000000000000ALASKA                                                          4                              02                 58672292              1                                              92
03000000000000ARIZONA                                                         4                              04                386737892              1                                              92
04000000000000ARKANSAS                                                        3                              05                239411492              1                                              92
05000000000000CALIFORNIA                                                      4                              06               3085422292              1                                              92
06000000000000COLORADO                                                        4                              08                346064492              1                                              92
07000000000000CONNECTICUT                                                     1                              09                327217892              1                                              92
08000000000000DELAWARE                                                        3                              10                 69010192              1                                              92
10000000000000FLORIDA                                                         3                              12               1350195492              1                                              92
11000000000000GEORGIA                                                         3                              13                676004992              1                                              92
12000000000000HAWAII                                                          4                              15                115134492              1                                              92
13000000000000IDAHO                                                           4                              16                106584292              1                                              92
14000000000000ILLINOIS                                                        2                              17               1162971392              1                                              92
15000000000000INDIANA                                                         2                              18                564760692              1                                              92
16000000000000IOWA                                                            2                              19                280687692              1                                              92
17000000000000KANSAS                                                          2                              20                251789692              1                                              92
18000000000000KENTUCKY                                                        3                              21                375837792              1                                              92
19000000000000LOUISIANA                                                       3                              22                427158092              1                                              92
20000000000000MAINE                                                           1                              23                123449192              1                                              92
21000000000000MARYLAND                                                        3                              24                490266492              1                                              92
22000000000000MASSACHUSETTS                                                   1                              25                599218592              1                                              92
23000000000000MICHIGAN                                                        2                              26                946455892              1                                              92
24000000000000MINNESOTA                                                       2                              27                447173892              1                                              92
25000000000000MISSISSIPPI                                                     3                              28                261009692              1                                              92
26000000000000MISSOURI                                                        2                              29                519351592              1                                              92
27000000000000MONTANA                                                         4                              30                 82249892              1                                              92
28000000000000NEBRASKA                                                        2                              31                160244492              1                                              92
29000000000000NEVADA                                                          4                              32                133253392              1                                              92
30000000000000NEW HAMPSHIRE                                                   1                              33                111351492              1                                              92
31000000000000NEW JERSEY                                                      1                              34                782625492              1                                              92
32000000000000NEW MEXICO                                                      4                              35                158084192              1                                              92
33000000000000NEW YORK                                                        1                              36               1807897992              1                                              92
34000000000000NORTH CAROLINA                                                  3                              37                683283292              1                                              92
35000000000000NORTH DAKOTA                                                    2                              38                 63547892              1                                              92
36000000000000OHIO                                                            2                              39               1100268092              1                                              92
37000000000000OKLAHOMA                                                        3                              40                320432392              1                                              92
38000000000000OREGON                                                          4                              41                297397292              1                                              92
39000000000000PENNSYLVANIA                                                    1                              42               1198137792              1                                              92
40000000000000RHODE ISLAND                                                    1                              44                100041092              1                                              92
41000000000000SOUTH CAROLINA                                                  3                              45                359935192              1                                              92
42000000000000SOUTH DAKOTA                                                    2                              46                 71504892              1                                              92
43000000000000TENNESSEE                                                       3                              47                501227892              1                                              92
44000000000000TEXAS                                                           3                              48               1766197192              1                                              92
45000000000000UTAH                                                            4                              49                181886892              1                                              92
46000000000000VERMONT                                                         1                              50                 56989892              1                                              92
47000000000000VIRGINIA                                                        3                              51                638424592              1                                              92
48000000000000WASHINGTON                                                      4                              53                514255392              1                                              92
49000000000000WEST VIRGINIA                                                   3                              54                180560392              1                                              92
50000000000000WISCONSIN                                                       2                              55                500475592              1                                              92
51000000000000WYOMING                                                         4                              56                 46351992              1                                              92
