00600000000000FEDERAL                                                                                        00000                                                                          111      94       
01000000000000ALABAMA                                                         3                              01                                  1                                          111      94       
01100200200000BALDWIN COUNTY                                                  3BALDWIN                       0100399003516000106349              1                                          133      94     04
01100700700000BUTLER COUNTY                                                   3BUTLER                        0101399013      21707               1                                          133      94     04
01100800800000CALHOUN COUNTY                                                  3CALHOUN                       0101599015045000116406              1                                          111      II     04
01101001000000CHEROKEE COUNTY                                                 3CHEROKEE                      0101999019      19860               .7811                                      133      94     04
01101101100000CHILTON COUNTY                                                  3CHILTON                       0102199021      33220               .4734                                      113      94     04
01101501500000CLEBURNE COUNTY                                                 3CLEBURNE                      0102999029      12984               .1716                                      133      94     04
01102202200000CULLMAN COUNTY                                                  3CULLMAN                       0104399043      69758               1                                          133      94     04
01102502500000DE KALB COUNTY                                                  3DE KALB                       0104999049      55909               .3524                                      111      II     04
01102702700000ESCAMBIA COUNTY                                                 3ESCAMBIA                      0105399053      36023               .75                                        131      94     04
01102802800000ETOWAH COUNTY                                                   3ETOWAH                        010559905528800099832               1                                          111      II     04
01103403400000HENRY COUNTY                                                    3HENRY                         0106799067      15562               .1339                                      113      94     04
01103503500000HOUSTON COUNTY                                                  3HOUSTON                       010699906921800083375               1                                          133      94     04
01103603600000JACKSON COUNTY                                                  3JACKSON                       0107199071      49010               .3908                                      133      94     04
01103703700000JEFFERSON COUNTY                                                3JEFFERSON                     0107399073100000657674              1                                          133      94     04
01103803800000LAMAR COUNTY                                                    3LAMAR                         0107599075      15611               .2359                                      111      II     04
01103903900000LAUDERDALE COUNTY                                               3LAUDERDALE                    010779907726500081797               1                                          111      94     04
01104404400000MACON COUNTY                                                    3MACON                         0108799087      24404               .1259                                      111      II     04
01104504500000MADISON COUNTY                                                  3MADISON                       0108999089344000251229              1                                          133      94     04
01104904900000MOBILE COUNTY                                                   3MOBILE                        0109799097516000389234              1                                          133      94     04
01105105100000MONTGOMERY COUNTY                                               3MONTGOMERY                    0110199101524000214996              1                                          133      94     04
01105205200000MORGAN COUNTY                                                   3MORGAN                        0110399103203000103770              1                                          333      94     04
01105405400000PICKENS COUNTY                                                  3PICKENS                       0110799107      20912               .4387                                      211      94     04
01105805800000ST CLAIR COUNTY                                                 3ST CLAIR                      011159911510000053290               .2733                                      133      94     04
01105905900000SHELBY COUNTY                                                   3SHELBY                        0111799117100000107261              1                                          133      94     04
01106106100000TALLADEGA COUNTY                                                3TALLADEGA                     0112199121      75140               .3872                                      111      II     04
01106206200000TALLAPOOSA COUNTY                                               3TALLAPOOSA                    0112399123      39260               .2069                                      111      II     04
01106306300000TUSCALOOSA COUNTY                                               3TUSCALOOSA                    0112599125860000153677              1                                          133      94     04
01106406400000WALKER COUNTY                                                   3WALKER                        0112799127      68396               1                                          133      94     04
01200100300000CITY OF PRATTVILLE                                              3AUTAUGA                       010016232852400021732               1                                          111      II     04
01200200100000CITY OF BAY MINETTE                                             3BALDWIN                       01003046605160007946                .7607                                      144      94     04
01200200200000CITY OF DAPHNE                                                  3BALDWIN                       010031964851600012678               1                                          133      94     04
01200200400000CITY OF FAIRHOPE                                                3BALDWIN                       01003252405160009277                .6695                                      111      II     04
01200200500000CITY OF FOLEY                                                   3BALDWIN                       01003269925160005874                1                                          133      94     04
01200250100000CITY OF GULF SHORES                                             3BALDWIN                       01003322725160003747                1                                          133      94     04
01200250200000TOWN OF LOXELY                                                  3BALDWIN                       01003446085160001379                .1173                                      111      II     04
01200300400000CITY OF EUFAULA                                                 3BARBOUR                       0100524568      13239               .7916                                      133      94     04
01200500300000CITY OF ONEONTA                                                 3BLOUNT                        01009570001000004966                1                                          133      94     04
01200560100000TOWN OF SUSAN MOORE                                             3BLOUNT                        0100974160100000632                 .02                                        121      94     04
01200700300000CITY OF GREENVILLE                                              3BUTLER                        0101331912      7390                1                                          134      94     04
01200800100000CITY OF ANNISTON                                                3CALHOUN                       010150185204500027115               1                                          133      94     04
01200800400000CITY OF JACKSONVILLE                                            3CALHOUN                       010153827204500010452               .7631                                      111      II     04
01200800600000CITY OF OXFORD                                                  3CALHOUN                       01015575760450009760                1                                          133      94     04
01200800700000CITY OF PIEDMONT                                                3CALHOUN                       01015596400450005665                .4649                                      144      94     04
01200900200000CITY OF LAFAYETTE                                               3CHAMBERS                      0101740672      3266                .3278                                      111      II     04
01201040100000TOWN OF SAND ROCK                                               3CHEROKEE                      0101967920      453                 1                                          111      94     04
01201200100000CITY OF BUTLER                                                  3CHOCTAW                       0102311032      1840                1                                          111      II     04
01201300100000TOWN OF COFFEEVILLE                                             3CLARKE                        0102516264      396                 .02                                        111      94     04
01201300400000CITY OF JACKSON                                                 3CLARKE                        0102538152      5914                1                                          141      94     04
01201600100000CITY OF ELBA                                                    3COFFEE                        0103123296      4063                .405                                       144      94     04
01201600200000CITY OF ENTERPRISE                                              3COFFEE                        0103124184      20673               1                                          144      94     04
01201700400000CITY OF MUSCLE SHOALS                                           3COLBERT                       01033530162650009744                1                                          133      94     04
01201700500000CITY OF SHEFFIELD                                               3COLBERT                       010336964826500010636               1                                          233      94     04
01202000100000CITY OF ANDALUSIA                                               3COVINGTON                     0103901708      9380                .7099                                      111      II     04
01202000500000CITY OF OPP                                                     3COVINGTON                     0103957120      6973                1                                          111      II     04
01202200100000CITY OF CULLMAN                                                 3CULLMAN                       0104318976      14642               1                                          133      94     04
01202200300000CITY OF HANCEVILLE                                              3CULLMAN                       0104332968      2495                .4019                                      144      94     04
01202300400000CITY OF OZARK                                                   3DALE                          010455764821800012728               1                                          133      94     04
01202400200000CITY OF SELMA                                                   3DALLAS                        0104769120      24358               1                                          133      94     04
01202500300000CITY OF FORT PAYNE                                              3DE KALB                       0104927616      12470               1                                          133      94     04
01202600200000CITY OF TALLASSEE                                               3ELMORE                        01051746885240005253                1                                          122      94     04
01202700100000CITY OF ATMORE                                                  3ESCAMBIA                      0105303004      8169                .5895                                      111      II     04
01202700200000CITY OF BREWTON                                                 3ESCAMBIA                      0105309208      5825                .2825                                      144      94     04
01202800200000CITY OF ATTALLA                                                 3ETOWAH                        01055030282880007025                .7713                                      144      94     04
01202800300000CITY OF GADSDEN                                                 3ETOWAH                        010552869628800043815               1                                          144      94     04
01202800400000CITY OF GLENCOE                                                 3ETOWAH                        01055299922880004688                .1633                                      144      94     04
01202890100000TOWN OF RIDGEVILLE                                              3ETOWAH                        0105564656288000169                 .02                                        111      94     04
01203000400000CITY OF RUSSELLVILLE                                            3FRANKLIN                      0105967056      7963                1                                          111      II     04
01203200200000CITY OF EUTAW                                                   3GREENE                        0106324664      2326                1                                          133      94     04
01203500200000TOWN OF COLUMBIA                                                3HOUSTON                       0106916744218000974                 1                                          144      94     04
01203500400000CITY OF DOTHAN                                                  3HOUSTON                       010692118421800054787               1                                          133      94     04
01203600100000CITY OF BRIDGEPORT                                              3JACKSON                       0107109328      2909                1                                          111      II     04
01203600500000CITY OF SCOTTSBORO                                              3JACKSON                       0107168736      14323               1                                          111      II     04
01203600700000CITY OF STEVENSON                                               3JACKSON                       0107173080      2090                1                                          111      94     04
01203620100000TOWN OF HY-TOP                                                  3JACKSON                       0107137264      300                 1                                          114      94     04
01203700100000CITY OF ADAMSVILLE                                              3JEFFERSON                     01073004601000004046                .359                                       133      94     04
01203700200000CITY OF BESSEMER                                                3JEFFERSON                     010730598010000032907               1                                          111      II     04
01203700300000CITY OF BIRMINGHAM                                              3JEFFERSON                     0107307000100000264984              1                                          133      94     04
01203700400000CITY OF BRIGHTON                                                3JEFFERSON                     01073094001000003958                .5614                                      111      II     04
01203700800000CITY OF FAIRFIELD                                               3JEFFERSON                     010732512010000012257               1                                          111      II     04
01203701200000CITY OF HOMEWOOD                                                3JEFFERSON                     010733580010000023344               1                                          124      94     04
01203701300000CITY OF IRONDALE                                                3JEFFERSON                     01073378641000009587                .3007                                      133      94     04
01203701900000CITY OF MOUNTAIN BROOK                                          3JEFFERSON                     010735169610000020127               .4664                                      133      94     04
01203702300000CITY OF TARRANT                                                 3JEFFERSON                     01073749761000008450                1                                          133      94     04
01203702500000CITY OF TRUSSVILLE                                              3JEFFERSON                     01073769441000009251                .6872                                      133      94     04
01203702600000CITY OF VESTAVIA HILLS                                          3JEFFERSON                     010737855210000020195               .8895                                      122      94     04
01203770200000TOWN OF WEST JEFFERSON                                          3JEFFERSON                     0107381336100000397                 1                                          311      94     04
01203780100000CITY OF HOOVER                                                  3JEFFERSON                     010733589610000042340               1                                          122      94     04
01203800600000CITY OF VERNON                                                  3LAMAR                         0107578480      2291                .5569                                      111      II     04
01203900100000CITY OF FLORENCE                                                3LAUDERDALE                    010772689626500036868               1                                          111      II     04
01204000100000TOWN OF COURTLAND                                               3LAWRENCE                      0107918040203000804                 1                                          111      II     04
01204100100000CITY OF AUBURN                                                  3LEE                           0108103076      35241               1                                          113      94     04
01204100200000CITY OF OPELIKA                                                 3LEE                           0108157048      23359               1                                          133      94     04
01204200100000TOWN OF ARDMORE                                                 3LIMESTONE                     01083022603440001135                .0517                                      111      II     04
01204200200000CITY OF ATHENS                                                  3LIMESTONE                     010830295634400017767               1                                          111      II     04
01204320100000TOWN OF GORDONVILLE                                             3LOWNDES                       01085           400                 1                                          111      II     04
01204400200000CITY OF TUSKEGEE                                                3MACON                         0108777304      11899               .4114                                      133      94     04
01204500100000CITY OF HUNTSVILLE                                              3MADISON                       0108937000344000163319              1                                          133      94     04
01204500200000CITY OF MADISON                                                 3MADISON                       010894578434400017552               .1878                                      133      94     04
01204600200000CITY OF DEMOPOLIS                                               3MARENGO                       0109120296      7519                .7518                                      122      94     04
01204800100000CITY OF ALBERTVILLE                                             3MARSHALL                      0109500988      15636               1                                          111      II     04
01204800200000CITY OF ARAB                                                    3MARSHALL                      0109502116      7033                1                                          144      94     04
01204800300000CITY OF BOAZ                                                    3MARSHALL                      0109507912      7127                1                                          144      94     04
01204800500000CITY OF GUNTERSVILLE                                            3MARSHALL                      0109532416      7846                1                                          134      94     04
01204900200000CITY OF BAYOU LA BATRE                                          3MOBILE                        01097046845160002366                .6059                                      133      94     04
01204900300000CITY OF CITRONELLE                                              3MOBILE                        01097150645160003955                1                                          133      94     04
01204900400000CITY OF MOBILE                                                  3MOBILE                        0109750000516000201896              1                                          133      94     04
01204900500000CITY OF PRICHARD                                                3MOBILE                        010976249651600033806               1                                          133      94     04
01204940100000TOWN OF DAUPHIN ISLAND                                          3MOBILE                        01097197445160001034                1                                          133      94     04
01204950100000CITY OF SARALAND                                                3MOBILE                        010976816051600011973               1                                          134      94     04
01205000400000CITY OF MONROEVILLE                                             3MONROE                        0109950192      7314                1                                          133      94     04
01205100100000CITY OF MONTGOMERY                                              3MONTGOMERY                    0110151000524000192125              1                                          133      94     04
01205200200000CITY OF DECATUR                                                 3MORGAN                        011032010420300049917               1                                          133      94     04
01205200400000CITY OF HARTSELLE                                               3MORGAN                        011033344820300011089               1                                          133      94     04
01205600100000CITY OF ROANOKE                                                 3RANDOLPH                      0111165040      6532                1                                          111      II     04
01205700200000CITY OF PHENIX                                                  3RUSSELL                       011135947218000026549               1                                          111      II     04
01205800100000TOWN OF ASHVILLE                                                3ST CLAIR                      01115029081000001605                .0733                                      144      94     04
01205840100000TOWN OF ARGO                                                    3ST CLAIR                      0111502320100000992                 1                                          133      94     04
01205900200000CITY OF CALERA                                                  3SHELBY                        01117114161000002569                .7754                                      133      94     04
01205900900000TOWN OF WILSONVILLE                                             3SHELBY                        01117828481000001197                1                                          131      94     04
01205901000000TOWN OF WILTON                                                  3SHELBY                        0111782872100000562                 .0254                                      111      II     04
01205920100000TOWN OF INDIAN SPRINGS                                          3SHELBY                        01117374651000001115                1                                          111      94     04
01205970100000CITY OF PELHAM                                                  3SHELBY                        011175884810000011064               1                                          111      II     04
01206000500000CITY OF LIVINGSTON                                              3SUMTER                        0111943720      3674                .304                                       111      II     04
01206100200000CITY OF CHILDERSBURG                                            3TALLADEGA                     0112114464      4803                1                                          133      94     04
01206100500000CITY OF SYLACAUGA                                               3TALLADEGA                     0112174352      13086               1                                          133      94     04
01206100600000CITY OF TALLADEGA                                               3TALLADEGA                     0112174592      19068               1                                          111      II     04
01206200100000CITY OF ALEXANDER CITY                                          3TALLAPOOSA                    0112301132      15040               1                                          133      94     04
01206200400000CITY OF DADEVILLE                                               3TALLAPOOSA                    0112319336      3349                .074                                       111      II     04
01206300200000CITY OF TUSCALOOSA                                              3TUSCALOOSA                    011257725686000078732               1                                          133      94     04
01206400200000CITY OF CORDOVA                                                 3WALKER                        0112717368      2573                .2006                                      111      II     04
01206400400000CITY OF JASPER                                                  3WALKER                        0112738416      13531               1                                          333      94     04
01206500100000TOWN OF CHATOM                                                  3WASHINGTON                    0112914008      1087                1                                          111      II     04
01206600100000CITY OF CAMDEN                                                  3WILCOX                        0113111512      2541                1                                          144      94     04
01206640100000TOWN OF YELLOW BLUFF                                            3WILCOX                        0113183976      244                 1                                          111      94     04
01206700200000TOWN OF DOUBLE SPRINGS                                          3WINSTON                       0113321280      1146                .1168                                      122      94     04
01400241300000BALDWIN CO MENTAL HEALTH & MENTAL RETARDATION BOARD             3BALDWIN                       01003           32                  1                                          111      94       
01400250100000BALDWIN CO SOIL CONS DIST                                       3BALDWIN                       01003     51600088                  .02                                        431      92     03
01400280100000FOLEY CITY HOUSING AUTH                                         3BALDWIN                       01003     51600050                  .2478                                      131      94     03
01400290800000THOMAS HOSPITAL BOARD                                           3BALDWIN                       01003     51600040                  1                                          133      94     03
01400290900000SOUTH BALDWIN HOSPITAL BOARD                                    3BALDWIN                       01003     51600040                  1                                          133      94     03
01400340100000WIREGRASS MENTAL HEALTH BOARD                                   3BARBOUR                       01005           32                  1                                          111      94       
01400500100000BLOUNT COUNTY HOSPITAL BOARD                                    3BLOUNT                        01009     10000040                  .5837                                      133      94     03
01400600100000BULLOCK CO. HOSP. & NURSING HOME BULLUCK COUNTY HOSPITAL BOARD  3BULLOCK                       01011           40                  1                                          111      94       
01400640200000EAST CENTRAL MENTAL HEALTH BOARD                                3BULLOCK                       01011           32                  1                                          111      94       
01400740100000BUTLER COUNTY WATER AUTH                                        3BUTLER                        01013           91                  .3008                                      111      94     03
01400740200000SOUTH CENTRAL AL MENTAL HEALTH BOARD                            3BUTLER                        01013           32                  1                                          111      94       
01400840100000ANNISTON WATER WORKS & SEWER BOARD                              3CALHOUN                       01015     04500098                  1                                          131      94     07
01400840200000NORTHEAST ALABAMA REGIONAL MEDICAL CENTER                       3CALHOUN                       01015     04500040                  1                                          113      94     03
01400840300000CALHOUN-CLEBURNE MENTAL HLTH BD                                 3CALHOUN                       01015     04500032                  1                                          111      94       
01400880100000CALHOUN COUNTY WATER-FIRE PROTECT AUTH                          3CALHOUN                       01015     04500091                  .4197                                      144      94     03
01400900300000LANETT CITY HOUSING AUTH                                        3CHAMBERS                      01017           50                  1                                          141      94     03
01401140100000CHILTON WATER & FIRE PROT AUTH                                  3CHILTON                       01021           91                  .385                                       133      93     03
01401300100000CLARKE-MOBILE COUNTIES GAS DT                                   3CLARKE                        01025           93                  1                                          144      89     03
01401400100000CLAY CO HOSPITAL BD                                             3CLAY                          01027           40                  .7432                                      133      94     03
01401450300000LINEVILLE HSG AUTH                                              3CLAY                          01027           50                  .461                                       122      94     03
01401450400000EAST CENTRAL AL GAS DIST                                        3CLAY                          01027           93                  1                                          122      93     03
01401700100000NW AL HEALTHCARE AUTH                                           3COLBERT                       01033     26500040                  1                                          133      94     03
01401740100000NORTH ALABAMA GAS DIST                                          3COLBERT                       01033     26500093                  1                                          133      94     03
01401740400000RIVERBEND CENTER FOR MENTAL HLTH                                3COLBERT                       01033     26500032                  1                                          111      94       
01401870100000CONECUH-MONROE CO GAS DIST                                      3CONECUH                       01035           93                  1                                          133      93     03
01402000200000SOUTHEAST ALABAMA NATURAL GAS DIST                              3COVINGTON                     01039           93                  1                                          113      94     03
01402200100000CULLMAN CITY HOUSING AUTH                                       3CULLMAN                       01043           50                  .2112                                      111      93     03
01402240300000CULLMAN MENTAL HEALTH CENTER                                    3CULLMAN                       01043           32                  1                                          111      94       
01402250200000CULLMAN JEFFERSON CO GAS DIST                                   3CULLMAN                       01043           93                  1                                          133      94     03
01402280100000CULLMAN CO HEALTH CARE AUTH                                     3CULLMAN                       01043           40                  1                                          133      92     03
01402300100000DALE COUNTY HOSPITAL BOARD                                      3DALE                          01045     21800040                  1                                          133      94     03
01402500300000DEKALB CHEROKEE NATURAL GAS DIST                                3DE KALB                       01049           93                  1                                          133      94     03
01402500400000FT PAYNE CITY HOUSING AUTH                                      3DE KALB                       01049           50                  .4894                                      124      94     03
01402500500000FORT PAYNE CITY IMPROVEMENT AUTH                                3DE KALB                       01049           92                  1                                          131      94     03
01402560300000RUHAMA FIRE PROTEC AUTH                                         3DE KALB                       01049           24                  .02                                        111      94     07
01402650100000CENTRAL ALABAMA MEDICAL CENTER                                  3ELMORE                        01051     52400040                  .4565                                      133      93     03
01402690100000CENTRAL ELMORE CO WTR AUTH                                      3ELMORE                        01051     52400091                  .1054                                      141      92     03
01402700100000ESCAMBIA CO HEALTHCARE AUTH                                     3ESCAMBIA                      01053           40                  1                                          133      94     03
01402800200000GADSDEN HOUSING AUTH                                            3ETOWAH                        01055     28800050                  .6471                                      133      94     03
01402840100000ETOWAH-DEKALB-CHEROKEE MENTAL HEALTH BOARD                      3ETOWAH                        01055     28800032                  1                                          111      94       
01403100200000GENEVA CO HEALTH CARE AUTH, INC - DBA                           3GENEVA                        01061           40                  .4807                                      133      94     03
01403100300000GENEVA CO NATURAL GAS DIST                                      3GENEVA                        01061           93                  1                                          131      94     03
01403290100000GREENE CO HOUSING AUTH                                          3GREENE                        01063           50                  .5458                                      131      93     03
01403370300000HALE CO HOSPITAL                                                3HALE                          01065           40                  .198                                       133      91     03
01403500400000HOUSTON COUNTY HEALTHCARE AUTH                                  3HOUSTON                       01069     21800040                  1                                          133      91     03
01403600100000JACKSON CO HOSPITAL BOARD                                       3JACKSON                       01071           40                  1                                          133      94     03
01403700100000BIRMINGHAM HOUSING AUTH                                         3JEFFERSON                     01073     10000050                  1                                          123      94     03
01403700300000JEFFERSON CO HOUSING AUTH                                       3JEFFERSON                     01073     10000050                  1                                          133      93     03
01403720300000BESSEMER HEALTH CARE AUTHORITY                                  3JEFFERSON                     01073     10000032                  1                                          111      94       
01403740100000JEFFERSON-BLOUNT-ST CLAIR MENTAL RETARDATION AUTHORITY          3JEFFERSON                     01073     10000032                  1                                          111      94       
01403750100000BESSEMER HSG AUTH                                               3JEFFERSON                     01073     10000050                  1                                          133      94     03
01403760200000BIRMINGHAM PARKING AUTH                                         3JEFFERSON                     01073     10000060                  1                                          133      94     03
01403760300000INDUSTRIAL WATER BOARD                                          3JEFFERSON                     01073           91                  1                                          131      93     03
01403760400000BIRMINGHAM CITY PUB BLDG AUTH                                   3JEFFERSON                     01073     10000089                  1                                          111      94     03
01403760500000WATER WORKS BOARD                                               3JEFFERSON                     01073     10000091                  1                                          133      94     03
01403761200000BIRMINGHAM JFRSN CIVC CTR AUTH                                  3JEFFERSON                     01073     10000061                  1                                          1        84     03
01403790100000BIRMINGHAM JEFFERSON CO TRANSIT AUTH                            3JEFFERSON                     01073     10000094                  1                                          133      94     03
01403800200000LAMAR CO NATURAL GAS DIST                                       3LAMAR                         01075           93                  1                                          141      92     03
01403840200000LAMAR COUNTY GAS DIST #1                                        3LAMAR                         01075           93                  1                                          111      94     03
01403840300000LAMAR COUNTY GAS DIST #2                                        3LAMAR                         01075           93                  1                                          111      94     03
01403840400000LAMAR COUNTY GAS DIST #3                                        3LAMAR                         01075           93                  1                                          111      94     03
01403840500000LAMAR COUNTY GAS DIST #4                                        3LAMAR                         01075           93                  1                                          111      94     03
01403900100000FLORENCE HOUSING AUTH                                           3LAUDERDALE                    01077     26500050                  1                                          133      94     03
01403990800000LAUDERDALE CO FLORENCE HOSP BD                                  3LAUDERDALE                    01077     26500040                  1                                          133      94     03
01404000100000LAWRENCE COUNTY HOSPITAL BOARD                                  3LAWRENCE                      01079     20300040                  .8598                                      233      94     03
01404070200000MOULTON WATER AUTH                                              3LAWRENCE                      01079     20300091                  .203                                       111      CC     03
01404080100000LAWRENCE-COLBERT CO GAS UTILITY DIST                            3LAWRENCE                      01079     20300093                  1                                          141      94     03
01404100200000EAST ALABAMA HEALTHCARE AUTH                                    3LEE                           01081           40                  1                                          133      94     03
01404100300000OPELIKA CITY HOUSING AUTH                                       3LEE                           01081           50                  .7247                                      111      94     03
01404200200000ATHENS & LIMESTONE CO HEALTH CARE AUTH                          3LIMESTONE                     01083     34400040                  1                                          133      94     03
01404460100000MACON CO WATER & FIRE PROTEC AUTH                               3MACON                         01087           91                  .4466                                      131      94     03
01404470100000TUSKEGEE HOUSING AUTH                                           3MACON                         01087           50                  1                                          133      94     03
01404500100000HUNTSVILLE CITY HOUSING AUTH                                    3MADISON                       01089     34400050                  1                                          133      94     03
01404540300000HUNTSVILLE-MADISON CO MENTAL HEALTH BOARD                       3MADISON                       01089     34400032                  1                                          111      94       
01404570100000HUNTSVILLE-MADISON COUNTY AIRPORT AUTH                          3MADISON                       01089     34400001                  1                                          133      94     03
01404640100000WEST ALABAMA MENTAL HEALTH BOARD                                3MARENGO                       01091           32                  1                                          111      94       
01404700400000HACKLEBURG HOUSING AUTH                                         3MARION                        01093           50                  .02                                        111      94     03
01404700600000NORTHWEST ALABAMA GAS DIST                                      3MARION                        01093           93                  1                                          133      94     03
01404700700000WINFIELD HOUSING AUTH                                           3MARION                        01093           50                  .1683                                      131      94     03
01404740100000BEAR CREEK WATER WORKS                                          3MARION                        01093           91                  .0319                                      141      94     03
01404800100000BOAZ CITY HOUSING AUTH                                          3MARSHALL                      01095           50                  .7061                                      131      94     03
01404800200000MARSHALL CO GAS DIST                                            3MARSHALL                      01095           93                  1                                          133      94     03
01404800300000MARSHALL CO HEALTHCARE AUTH                                     3MARSHALL                      01095           40                  1                                          133      94     03
01404840100000MARSHALL-JACKSON MENTAL HLTH BD                                 3MARSHALL                      01095           32                  1                                          111      94       
01404900100000MOBILE HOUSING BD                                               3MOBILE                        01097     51600050                  1                                          133      94     03
01404920300000MOBILE SOLID WASTE DISP AUTH                                    3MOBILE                        01097     51600081                  1                                          111      94     03
01404940100000MOBILE AIRPORT AUTH                                             3MOBILE                        01097     51600001                  1                                          133      94     03
01404940400000GREATER MOBIL-WASHINGTON CO MENTAL HEALTH BOARD                 3MOBILE                        01097           32                  1                                          111      94       
01404960100000MOBIL TRANSIT AUTH                                              3MOBILE                        01097     51600094                  1                                          131      94     03
01404970400000PRICHARD CITY HOUSING AUTH                                      3MOBILE                        01097     51600050                  .5724                                      133      94     03
01404980100000CHICKASAW CITY HOUS AUTH                                        3MOBILE                        01097     51600050                  .3004                                      144      94     03
01404990500000DAUPHIN ISLAND WATER-SEWER-FIRE PROTECTN AUTH                   3MOBILE                        01097     51600098                  .5672                                      133      93     07
01405040100000SW ALABAMA MENTAL HEALTH AND MENTAL RETARDATION BOARD           3MONROE                        01099           32                  1                                          111      94       
01405070100000MONROE CO HOSPITAL BD                                           3MONROE                        01099           40                  .6666                                      133      94     03
01405080100000MONROEVILLE HOUSING AUTH                                        3MONROE                        01099           50                  .1199                                      122      94     03
01405100200000MONTGOMERY CITY HOUSING AUTH                                    3MONTGOMERY                    01101     52400050                  1                                          133      94     03
01405140100000MONTGOMERY AREA MENTAL HEALTH AUTHORITY                         3MONTGOMERY                    01101     52400032                  1                                          111      94       
01405140200000ALABAMA MUNICIPAL ELECTRIC AUTH                                 3MONTGOMERY                    01101     52400092                  1                                          111      94     03
01405200100000DECATUR CITY HOUSING AUTH                                       3MORGAN                        01103     20300050                  1                                          133      94     03
01405220100000DECATUR HEALTH CARE AUTH                                        3MORGAN                        01103     20300040                  1                                          111      94     03
01405240100000DECATUR-MORGAN COUNTY PORT AUTH                                 3MORGAN                        01103     20300087                  .05                                        111      94     03
01405260200000WEST MORGAN-EAST LAWRENCE WATER AUTH                            3MORGAN                        01103     20300091                  .598                                       141      94     03
01405340200000CAHABA BD FOR MENTAL HEALTH & MENTAL RETARDATION                3PERRY                         01105           32                  1                                          111      94       
01405480200000PICKENS CO HOSPITAL ASSN                                        3PICKENS                       01107           40                  .6589                                      111      94     03
01405480300000PICKENS CO NATURAL GAS DIST                                     3PICKENS                       01107           93                  1                                          111      94     03
01405580200000EDGE REGIONAL MEDICAL CENTER                                    3PIKE                          01109           40                  .8347                                      133      91     03
01405700100000PHENIX CITY HSG AUTH                                            3RUSSELL                       01113     18000050                  1                                          122      93     03
01405900400000SHELBY CO HOSP BD                                               3SHELBY                        01117     10000040                  1                                          133      94     03
01405940200000MENTAL HLTH BD OF CHILTON AND SHELBY COUNTIES                   3SHELBY                        01117     10000032                  1                                          111      94       
01406100300000SYLACAUGA HOUSING AUTH                                          3TALLADEGA                     01121           50                  .0625                                      133      94     03
01406140100000CHEAHA REG MENTH HLTH & MENTAL RETARDATION BOARD                3TALLADEGA                     01121           32                  1                                          111      94       
01406240100000EAST AL MENTAL HLTH & MENTAL RETARDATION BOARD                  3TALLAPOOSA                    01123           32                  1                                          111      94       
01406280200000ALEXANDER CITY HOUS AUTH                                        3TALLAPOOSA                    01123           50                  .563                                       133      94     03
01406300100000TUSCALOOSA HSG AUTH                                             3TUSCALOOSA                    01125     86000050                  1                                          133      94     03
01406340200000BIBB-PICKENS-TUSCALOOSA MENTAL HEALTH BOARD                     3TUSCALOOSA                    01125     86000032                  1                                          111      94       
01406360200000TUSCALOOSA CO PARKING & TRANSIT AUTH                            3TUSCALOOSA                    01125     86000094                  1                                          144      94     03
01406390100000DCH HEALTHCARE AUTH                                             3TUSCALOOSA                    01125     86000040                  1                                          133      94     03
01406400300000JASPER CITY HOUSING AUTH                                        3WALKER                        01127           50                  .4363                                      141      94     03
01406690100000WILCOX COUNTY GAS DIST                                          3WILCOX                        01131           93                  1                                          144      94     03
01406700100000HALEYVILLE HOUSING AUTH                                         3WINSTON                       01133           50                  .3798                                      121      93     03
01406740100000NORTHWEST AL MENTAL HLTH BOARD                                  3WINSTON                       01133           32                  1                                          111      94       
01500100100000AUTAUGA CO SCH DIST                                             3AUTAUGA                       01001     5240007381       03       .68                                        111      II     06
01500200100000BALDWIN CO SCH DIST                                             3BALDWIN                       01003     51600019384      03       1                                          31112121294     06
01500500100000BLOUNT CO SCH DIST                                              3BLOUNT                        01009     1000006173       03       .6228                                      21112121294     06
01500800200000ANNISTON CTY SCH DST                                            3CALHOUN                       01015     0450003880       03       .6373                                      11112121294     06
01500800300000CALHOUN CO SCH DIST                                             3CALHOUN                       01015     04500010606      03       1                                          111      II     06
01500900100000CHAMBERS CO SCH DIST                                            3CHAMBERS                      01017           4177       03       .616                                       21112121294     06
01501100100000CHILTON CO SCH DIST                                             3CHILTON                       01021           6297       03       .6589                                      31112121294     06
01501600300000ENTERPRISE CTY SCH DIST                                         3COFFEE                        01031           5411       03       .5564                                      21112121294     06
01501750100000MUSCLE SHOALS SCH DIST                                          3COLBERT                       01033     2650002230       03       .2849                                      21112121294     06
01502000100000ANDALUSIA CTY SCH DIST                                          3COVINGTON                     01039           2089       03       .2582                                      21112121294     06
01502000400000OPP CITY SCH DIST                                               3COVINGTON                     01039           1633       03       .1821                                      11112121294     06
01502100100000CRENSHAW CO SCH DIST                                            3CRENSHAW                      01041           2386       03       .2921                                      11112121294     06
01502200200000CULLMAN CO SCH DIST                                             3CULLMAN                       01043           9273       03       1                                          31112121294     06
01502300200000OZARK CITY SCH DIST                                             3DALE                          01045     2180003401       03       .3948                                      11112121294     06
01502500100000DE KALB CO SCH DIST                                             3DE KALB                       01049           7229       03       .8124                                      11112121294     06
01502600100000ELMORE CO SCH DIST                                              3ELMORE                        01051     5240008386       03       .7592                                      11112121294     06
01502700300000ESCAMBIA CO SCH DIST                                            3ESCAMBIA                      01053           5004       03       .6836                                      111      II     06
01502800200000ETOWAH CO SCH DIST                                              3ETOWAH                        01055     2880008710       03       1                                          11112121294     06
01502800300000GADSDEN CITY SCH DIST                                           3ETOWAH                        01055     2880005896       03       .8433                                      31112121294     06
01503100100000GENEVA CO SCH DIST                                              3GENEVA                        01061           2835       03       .3488                                      11112121294     06
01503200100000GREENE CO SCH DIST                                              3GREENE                        01063           2305       03       .3309                                      31112121294     06
01503500100000DOTHAN CITY SCH DIST                                            3HOUSTON                       01069     21800010019      03       1                                          11112121294     06
01503500200000HOUSTON CO SCH DIST                                             3HOUSTON                       01069     2180005646       0        .5771                                      11112121294     06
01503600100000JACKSON CO SCH DIST                                             3JACKSON                       01071           6450       03       1                                          31112121294     06
01503700200000BIRMINGHAM CITY SCH DIST                                        3JEFFERSON                     01073     10000042847      03       1                                          111      II     06
01503700400000JEFFERSON CO SCH DIST                                           3JEFFERSON                     01073     10000040733      03       1                                          21112121294     06
01503740100000HOOVER CITY SCH DIST                                            3JEFFERSON                     01073     1000007176       03       1                                          11112121294     06
01503750100000MT BROOK CTY SCH DIST                                           3JEFFERSON                     01073     1000003516       03       .5216                                      31112091294     06
01503780200000MIDFIELD CITY SCHOOL DIST                                       3JEFFERSON                     01073     1000001789       03       .2236                                      11112121294     06
01503780400000VESTAVIA HILLS CTY SCH DIST                                     3JEFFERSON                     01073     1000004121       03       .5553                                      11112121294     06
01503800100000LAMAR CO SCH DIST                                               3LAMAR                         01075           2997       03       .4009                                      11112121294     06
01503900100000FLORENCE CITY SCH DIST                                          3LAUDERDALE                    01077     2650005131       03       .7859                                      111      II     06
01503900200000LAUDERDALE CO SCH DIST                                          3LAUDERDALE                    01077     2650008464       03       1                                          21112121294     06
01504200100000ATHENS CITY SCH DIST                                            3LIMESTONE                     01083     3440002997       03       .4282                                      11112121294     06
01504200200000LIMESTONE CO SCH DIST                                           3LIMESTONE                     01083     3440007239       03       .7421                                      111      II     06
01504400100000MACON CO SCH DIST                                               3MACON                         01087           4214       03       .6365                                      21112121294     06
01504500100000HUNTSVILLE CITY SCH DIST                                        3MADISON                       01089     34400025075      03       1                                          11112121294     06
01504500200000MADISON CO SCH DIST                                             3MADISON                       01089     34400016424      03       1                                          31112121294     06
01504600100000DEMOPOLIS CITY SCH DIST                                         3MARENGO                       01091           2205       03       .2166                                      31112121294     06
01504700100000MARION CO SCH DIST                                              3MARION                        01093           4112       03       .4737                                      21112121294     06
01504700200000WINFIELD CTY SCH DIST                                           3MARION                        01093           1370       03       .1482                                      31112121294     06
01504800100000MARSHALL CO SCH DIST                                            3MARSHALL                      01095           6536       03       .5975                                      11112121294     06
01504880100000ARAB CIT SCHOOL DIST                                            3MARSHALL                      01095           2511       03       .2546                                      11112121294     06
01504900100000MOBILE CO SCH DIST                                              3MOBILE                        01097     51600066580      03       1                                          111      II     06
01505100100000MONTGOMERY CO SCH DIST                                          3MONTGOMERY                    01101     52400035244      03       1                                          111      II     06
01505200100000DECATUR CITY SCH DIST                                           3MORGAN                        01103     2030008811       03       1                                          21112121294     06
01505290100000HARTSELLE CTY SCH DIST                                          3MORGAN                        01103     2030002949       03       .3701                                      111      II     06
01505400100000PICKENS CO SCH DIST                                             3PICKENS                       01107           4033       03       .4676                                      21112121294     06
01505600100000RANDOLPH CO SCH DIST                                            3RANDOLPH                      01111           2407       03       .295                                       31112121294     06
01505600200000ROANOKE CITY SCH DIST                                           3RANDOLPH                      01111           1568       03       .1397                                      11112121294     06
01505700100000PHENIX CITY SCH DIST                                            3RUSSELL                       01113     1800004944       03       .6226                                      11112121294     06
01505700200000RUSSELL CO SCH DIST                                             3RUSSELL                       01113     1800003779       03       .401                                       11112121294     06
01505800100000ST CLAIR CO SCH DIST                                            3ST CLAIR                      01115     1000005453       03       .5673                                      111      II     06
01505860100000PELL CITY SCHOOL DIST                                           3ST CLAIR                      01115     1000003431       03       .3291                                      11112121294     06
01505900100000SHELBY CO SCH DIST                                              3SHELBY                        01117     10000017246      03       1                                          11112121294     06
01506000100000SUMTER CO SCH DIST                                              3SUMTER                        01119           2900       03       .4002                                      11112121294     06
01506100300000TALLADEGA CO SCH DIST                                           3TALLADEGA                     01121           7741       03       1                                          21112121294     06
01506200100000TALLAPOOSA CO SCH DIST                                          3TALLAPOOSA                    01123           3260       03       .4126                                      11112121294     06
01506300100000TUSCALOOSA CITY SCH DIST                                        3TUSCALOOSA                    01125     86000010537      03       1                                          111      94     06
01506300200000TUSCALOOSA CO SCH DIST                                          3TUSCALOOSA                    01125     86000014777      03       1                                          311      94     06
01506400300000WALKER CO SCH DIST                                              3WALKER                        01127           9094       03       1                                          31112121294     06
01506600100000WILCOX CO SCH DIST                                              3WILCOX                        01131           2789       03       .522                                       11112121294     06
01506700100000WINSTON CO SCH DIST                                             3WINSTON                       01133           2688       03       .3028                                      31112121294     06
02000000000000ALASKA                                                          4                              02                                  1                                          111      94       
02100400100000BRISTOL BAY BOROUGH                                             4BRISTOL BAY                   0206099060      1454                1                                          122      9494   04
02100600200000FAIRBANKS NORTH STAR BOROUGH                                    4FAIRBANKS NORTH STAR          0209099090      82549               1                                          133      94II   04
02100900400000KANAI PENINSULA BOROUGH                                         4KANAI PENINSULA               0212299122      43489               1                                          133      9494   04
02101000500000KETCHIKAN GATEWAY BOROUGH                                       4KETCHIKAN GATEWAY             0213099130      14089               1                                          122      94II   04
02101101100000NORTHWEST ARCTIC BOROUGH                                        4NORTHWEST ARCTIC              0218899188      6353                1                                          233      9494   04
02101200600000KODIAK ISLAND BOROUGH                                           4KODIAK ISLAND                 0215099150      14243               1                                          133      94II   04
02101300700000MATANUSKA-SUSITNA BOROUGH                                       4MATANUSKA-SUSITNA             0217099170      44929               1                                          111      IIII   04
02101500800000NORTH SLOPE BOROUGH                                             4NORTH SLOPE                   0218599185      6535                1                                          233      9494   04
02200100200000CITY OF SAINT PAUL                                              4ALEUTIANS WEST                0201666470      747                 1                                          133      94     04
02200100400000CITY OF UNALASKA                                                4ALEUTIANS WEST                0201680770      3108                1                                          122      94II   04
02200140200000CITY OF ATKA                                                    4ALEUTIANS WEST                0201604210      65                  1                                          522      94     04
02200200100000MUNICIPALITY OF ANCHORAGE                                       4ANCHORAGE                     0202003000038000245866              1                                          111      IIII   04
02200300600000CITY OF BETHEL                                                  4BETHEL                        0205006520      4940                1                                          133      94     04
02200600100000CITY OF FAIRBANKS                                               4FAIRBANKS NORTH STAR          0209024230      33221               1                                          122      94     04
02200600200000CITY OF NORTH POLE                                              4FAIRBANKS NORTH STAR          0209055910      1563                .4317                                      122      94     04
02200800100000CITY AND BOROUGH OF JUNEAU                                      4JUNEAU                        0211036400      28364               1                                          211      9494   04
02200900100000CITY OF HOMER                                                   4KANAI PENINSULA               0212233140      3712                1                                          133      94     04
02200900300000CITY OF KENAI                                                   4KANAI PENINSULA               0212238420      6727                1                                          111      94     04
02200900500000CITY OF SEWARD                                                  4KANAI PENINSULA               0212268560      2823                1                                          133      94     04
02200900600000CITY OF SOLDOTNA                                                4KANAI PENINSULA               0212271640      3828                1                                          133      94     04
02201000100000CITY OF KETCHIKAN                                               4KETCHIKAN GATEWAY             0213038970      8482                1                                          122      94     04
02201100700000CITY OF KOTZEBUE                                                4NORTHWEST ARCTIC              0218841830      2851                .2865                                      133      94     04
02201200200000CITY OF KODIAK                                                  4KODIAK ISLAND                 0215040950      6878                1                                          133      94     04
02201300200000CITY OF PALMER                                                  4MATANUSKA-SUSITNA             0217058660      3330                1                                          133      94     04
02201300300000CITY OF WASILLA                                                 4MATANUSKA-SUSITNA             0217083080      4670                .7812                                      122      94     04
02201400700000CITY OF NOME                                                    4NOME                          0218054920      3484                1                                          133      9494   04
02201640100000CITY OF COFFMAN COVE                                            4PRINCE OF WALES               0220116360      191                 1                                          111      94     04
02201700100000CITY AND BOROUGH OF SITKA                                       4SITKA                         0222070540      8878                1                                          111      II94   04
02201800400000CITY OF SKAGWAY                                                 4SKAGWAY-HOONAH-ANGOON         0223270760      741                 .3762                                      121      94II   04
02202000100000CITY OF CORDOVA                                                 4VALDEZ-CORDOVA                0226117410      2131                1                                          111      IIII   04
02202000200000CITY OF VALDEZ                                                  4VALDEZ-CORDOVA                0226182200      4334                1                                          222      94II   04
02202100200000CITY OF CHEVAK                                                  4WADE HAMPTON                  0227013230      621                 .0422                                      111      II     04
02202200300000CITY OF PETERSBURG                                              4WRANGELL-PETERSBURG           0228060310      3130                1                                          122      9494   04
02202200500000CITY OF WRANGELL                                                4WRANGELL-PETERSBURG           0228086380      2561                1                                          122      94II   04
02202300500000CITY OF GALENA                                                  4YUKON-KAYUKUK                 0229027530      775                 .3944                                      111      II94   04
02202300600000CITY OF GRAYLING                                                4YUKON-KAYUKUK                 0229030060      186                 .0261                                      111      II     04
02202301300000CITY OF NENANA                                                  4YUKON-KAYUKUK                 0229053050      410                 1                                          122      9494   04
02202301500000CITY OF NULATO                                                  4YUKON-KAYUKUK                 0229056350      358                 .2258                                      111      II     04
02202301700000CITY OF SHAGELUK                                                4YUKON-KAYUKUK                 0229068670      138                 .02                                        144      94     04
02202400200000CITY OF KING COVE                                               4ALEUTIANS EAST                0201339410      472                 .1437                                      112      94     04
02202420100000CITY OF FALSE PASS                                              4ALEUTIANS EAST                0201324660      30                  1                                          133      94     04
02202520100000CITY OF PILOT POINT                                             4LAKE AND PENINSULA            0216460640      97                  1                                          111      II     04
02202640100000CITY OF ANDERSON                                                4DENALI                        0206803220      630                 1                                          133      94     04
02202700100000YAKUTAT CITY AND BOROUGH                                        4YAKUTAT                       0228286498      710                 1                                          111      IIII   04
02400240100000ALEUTIAN REG HOUS AUTH                                          4ANCHORAGE                     02020     03800050                  .8                                         222      90     03
02400300100000AVCP REGIONAL HOUSING AUTH                                      4BETHEL                        02050           50                  1                                          222      94     03
02400500100000BRISTOL BAY HOUSING AUTH                                        4DILLINGHAM                    02070           50                  1                                          233      94     03
02400640100000INTERIOR REG HOUS AUTH                                          4FAIRBANKS NORTH STAR          02090           50                  1                                          133      94     03
02400800100000TLINGET-HAIDA HOUSING AUTH                                      4JUNEAU                        02110           50                  1                                          131      94     03
02400840100000TLINGIT-HAIDA REG ELECTRICAL AUTH                               4JUNEAU                        02110           92                  1                                          211      94     03
02401100100000NORTHWEST INUPIAT HSG AUTH                                      4NORTHWEST ARCTIC              02188           50                  .8                                         133      92     03
02401200100000KODIAK ISLAND HOUSING AUTH                                      4KODIAK ISLAND                 02150           50                  1                                          222      94     03
02500820100000SOUTHEAST REGIONAL RESOURCE CNTR                                4JUNEAU                        02110           0          07       1                                          11112121294     06
03000000000000ARIZONA                                                         4                              04                                  1                                          111      94       
03100100100000APACHE COUNTY                                                   4APACHE                        0400199001      62916               1                                          133      94     04
03100200200000COCHISE COUNTY                                                  4COCHISE                       0400399003      101364              .8235                                      133      9494   04
03100400400000GILA COUNTY                                                     4GILA                          0400799007      42433               1                                          133      94     04
03100700700000MARICOPA COUNTY                                                 4MARICOPA                      04013990136200002209567             1                                          111      IIII   04
03100800800000MOHAVE COUNTY                                                   4MOHAVE                        0401599015412000106025              1                                          133      94     04
03101001000000PIMA COUNTY                                                     4PIMA                          0401999019852000690202              1                                          132      9494   04
03101101100000PINAL COUNTY                                                    4PINAL                         0402199021620000120786              1                                          133      94II   04
03101301300000YAVAPAI COUNTY                                                  4YAVAPAI                       0402599025      116081              .8                                         111      II     04
03101401400000YUMA COUNTY                                                     4YUMA                          0402799027936000117538              .6944                                      133      94     04
03200200400000CITY OF SIERRA VISTA                                            4COCHISE                       0400366820      35475               .7382                                      133      94     04
03200300100000CITY OF FLAGSTAFF                                               4COCONINO                      040052362026200048132               1                                          133      94     04
03200500200000CITY OF SAFFORD                                                 4GRAHAM                        0400962000      7860                .4823                                      133      94     04
03200700100000CITY OF AVONDALE                                                4MARICOPA                      040130472062000016197               .314                                       133      94     04
03200700200000TOWN OF BUCKEYE                                                 4MARICOPA                      04013079406200005236                .1464                                      122      94     04
03200700300000CITY OF CHANDLER                                                4MARICOPA                      0401312000620000100173              1                                          133      94     04
03200700500000TOWN OF GILBERT                                                 4MARICOPA                      040132740062000036908               1                                          133      94     04
03200700600000CITY OF GLENDALE                                                4MARICOPA                      0401327820620000156165              1                                          111      II     04
03200700800000CITY OF MESA                                                    4MARICOPA                      0401346000620000296645              1                                          133      94     04
03200700900000CITY OF PEORIA                                                  4MARICOPA                      040135405062000055958               1                                          133      94     04
03200701000000CITY OF PHOENIX                                                 4MARICOPA                      04013550006200001012230             1                                          133      94     04
03200701100000CITY OF SCOTTSDALE                                              4MARICOPA                      0401365000620000137022              1                                          133      94     04
03200701200000CITY OF TEMPE                                                   4MARICOPA                      0401373000620000142139              1                                          133      94     04
03200740300000CITY OF LITCHFIELD PARK                                         4MARICOPA                      04013413306200003237                1                                          133      94     04
03200740400000TOWN OF FOUNTAIN HILLS                                          4MARICOPA                      040132530062000011156               1                                          133      94     04
03200740500000TOWN OF QUEEN CREEK                                             4MARICOPA                      04013581506200002716                1                                          111      II     04
03200840100000CITY OF BULLHEAD CITY                                           4MOHAVE                        040150822041200024781               1                                          133      94     04
03200860100000CITY OF LAKE HAVASU CITY                                        4MOHAVE                        040153937041200028054               .476                                       133      94     04
03200900200000CITY OF SHOW LOW                                                4NAVAJO                        0401766470      5312                .1184                                      133      94     04
03201000200000CITY OF TUCSON                                                  4PIMA                          0401977000852000415079              1                                          133      94     04
03201100100000CITY OF CASA GRANDE                                             4PINAL                         040211053062000019954               1                                          133      94     04
03201150200000TOWN OF MAMMOTH                                                 4PINAL                         04021439906200001910                .1467                                      133      94     04
03201300200000CITY OF PRESCOTT                                                4YAVAPAI                       0402557380      28155               1                                          133      94     04
03201340200000CITY OF SEDONA                                                  4YAVAPAI                       0402565350      8254                1                                          133      94     04
03201400300000CITY OF YUMA                                                    4YUMA                          040278554093600061047               1                                          133      94     04
03201540100000TOWN OF QUARTZSITE                                              4LA PAZ                        0401258010      1809                1                                          131      94     04
03400340300000PAGE HOSPITAL DIST                                              4COCONINO                      04005     26200040                  .5                                         111      94     03
03400701000000MARICOPA CO ELECT DIST 5                                        4MARICOPA                      04013     62000092                  1                                          133      94     03
03400701100000MARICOPA CO ELECTRICAL DIST 7                                   4MARICOPA                      04013           92                  1                                          111      94     03
03400702400000SALT RIVER PROJ AGR IMP POWER DIST                              4MARICOPA                      04013     62000099                  1                                          133      94     07
03400720300000AGUILA IRRIGATION DIST                                          4MARICOPA                      04013     62000092                  1                                          111      94     03
03400740200000ELECTRICAL DIST #8                                              4MARICOPA                      04013           92                  1                                          111      94     03
03400741300000REGIONAL PUBLIC TRANSP AUTH                                     4MARICOPA                      04013     62000094                  1                                          121      93     03
03400750300000MARICOPA CO HOSP DIST 1                                         4MARICOPA                      04013           40                  1                                          111      94     03
03400760300000CENTRAL ARIZ WATER CONS DIST                                    4MARICOPA                      04013     62000091                  1                                          131      94     03
03400762800000SUN CITY FIRE DISTRICT                                          4MARICOPA                      04013     62000024                  .1                                         133      94     07
03400780800000FOUNTAIN HILLS SAN DIST                                         4MARICOPA                      04013     62000080                  .2739                                      133      94     03
03400840700000BULLHEAD PEST ABATEMENT DIST                                    4MOHAVE                        04015     41200032                  .02                                        111      94     03
03400861500000PINION PINES FIRE DISTRICT                                      4MOHAVE                        04015     41200024                  .02                                        111      94     07
03400900200000WOODRUFF IRRIG DIST                                             4NAVAJO                        04017           64                  .02                                        111      94     03
03401061600000SABINO VISTA FIRE DISTRICT                                      4PIMA                          04019     85200024                  .02                                        111      94     07
03401100200000PINAL CO ELECTRICAL DIST NO 2                                   4PINAL                         04021     62000092                  1                                          131      94     03
03401100300000PINAL CO ELECTRICAL DIST 3                                      4PINAL                         04021     62000092                  1                                          111      94     03
03401100400000PINAL CO ELECTRICAL DIST 4                                      4PINAL                         04021     62000092                  1                                          111      94     03
03401160100000PINAL ELECTRIC DIST 6                                           4PINAL                         04021     62000092                  1                                          111      94     03
03401170400000MARICOPA STANFIELD IRRIGATION & DRAINAGE DIST                   4PINAL                         04021     62000091                  1                                          111      94     03
03401180100000CENTRAL ARIZONA IRRIGATION & DRAINAGE DIST                      4PINAL                         04021     62000064                  .7815                                      122      94     03
03401360200000SPECIAL ROAD DIST 1                                             4YAVAPAI                       04025           44                  1                                          111      94     03
03401370100000CENTRAL YAVAPAI HOSPITAL DIST                                   4YAVAPAI                       04025           40                  1                                          111      94     03
03401400300000WELLTON MOHAWK IRRI DRGE DIST                                   4YUMA                          04027     93600064                  1                                          122      94     03
03401400500000YUMA IRRIGATION DIST                                            4YUMA                          04027     93600064                  .1972                                      121      93     03
03500101200000SANDERS UNIF SCH DIST 18                                        4APACHE                        04001           1114       03       .0833                                      13309  1294     06
03500140200000VERNON ELEM SCHOOL DIST 9                                       4APACHE                        04001           62         01       1                                          13309091294     06
03500200200000ASH CREEK SCH DIST 53                                           4COCHISE                       04003           75         01       .02                                        13312121294     06
03500200700000SIERRA VISTA UNIF SCH DIST 68                                   4COCHISE                       04003           7015       03       .4871                                      23312121294     06
03500202700000WILLCOX SCH DIST 13                                             4COCHISE                       04003           1510       03       .0841                                      23309121294     06
03500270100000COCHISE CO CMNTY COLLEGE DIST                                   4COCHISE                       04003           4673                1                                          13312121294     06
03500300100000FLAGSTAFF SCH DIST 1                                            4COCONINO                      04005     26200012247      03       1                                          111      II     06
03500300600000WILLIAMS SCH DIST 2                                             4COCONINO                      04005     262000725        03       .0466                                      13309121294     06
03500400500000PAYSON UNIFIED SCH DIST 10                                      4GILA                          04007           2305       03       .3142                                      13309121294     06
03500500200000EASTERN ARIZ JR COL DIST                                        4GRAHAM                        04009           3985                1                                          111      94     06
03500500600000SAFFORD SCH DIST 1                                              4GRAHAM                        04009           2955       03       .2436                                      133  121294     06
03500700200000ALHAMBRA SCH DIST 68                                            4MARICOPA                      04013     6200009342       01       .4523                                      13309121294     06
03500700800000CARTWRIGHT SCH DIST 83                                          4MARICOPA                      04013     62000015480      01       1                                          111      II     06
03500701000000CHANDLER UNIFIED SCHOOL DIST 80                                 4MARICOPA                      04013     62000013328      03       1                                          13209121294     06
03500701100000CREIGHTON SCH DIST 14                                           4MARICOPA                      04013     6200006343       01       .599                                       111      II     06
03500701600000GILBERT SCHOOL DISTRICT 41                                      4MARICOPA                      04013     62000013753      03       1                                          13309121194     06
03500701700000GLENDALE SCH DIST 40                                            4MARICOPA                      04013     6200009689       01       1                                          111      II     06
03500701800000GLENDALE UNION H SCH DIST 205                                   4MARICOPA                      04013     62000012672      02       1                                          13309101294     06
03500702100000KYRENE SCH DIST 28                                              4MARICOPA                      04013     62000014388      01       1                                          111      II     06
03500702700000MESA UNIFIED SCHOOL DIST                                        4MARICOPA                      04013     62000067639      03       1                                          13309121294     06
03500703200000OSBORN SCH DIST 8                                               4MARICOPA                      04013     6200003806       01       .5852                                      13310091294     06
03500703500000PEORIA UNIFIED SCH DIST 11                                      4MARICOPA                      04013     62000024752      03       1                                          233      94     06
03500703700000PHOENIX UNION H SCH DIST 210                                    4MARICOPA                      04013     62000020168      02       1                                          13309121294     06
03500704000000ROOSEVELT SCH DIST 66                                           4MARICOPA                      04013     62000011186      01       1                                          23312121294     06
03500704100000SCOTTSDALE SCHOOL DIST 48                                       4MARICOPA                      04013     62000022096      03       1                                          13309101294     06
03500704300000PARADISE VALLEY SCH DIST 69 AND 217                             4MARICOPA                      04013     62000030042      03       1                                          13309091294     06
03500704400000TEMPE ELEM SCH DIST 3                                           4MARICOPA                      04013     62000013083      01       1                                          111      II     06
03500704500000TEMPE UNION HIGH SCH DIST 213                                   4MARICOPA                      04013     6200009735       02       1                                          111      II     06
03500705000000WASHINGTON SCH DIST 6                                           4MARICOPA                      04013     62000024016      01       1                                          111      II     06
03500750100000DEER VALLEY SCH DIST 97                                         4MARICOPA                      04013     62000018054      03       1                                          111      II     06
03500770100000MARICOPA CO CMNTY COLLEGE DIST                                  4MARICOPA                      04013     62000063064               1                                          111      II     06
03500800500000KINGMAN SCH DIST 4                                              4MOHAVE                        04015     4120004850       01       .2685                                      33310  1094     06
03500800800000MOHAVE CO UNION H SCH DIST 30                                   4MOHAVE                        04015     4120001715       02       .1535                                      111      II     06
03500820100000COLORADO R UNION HIGH SCH DIST 2                                4MOHAVE                        04015     4120001540       02       1                                          13312091294     06
03500880100000MOHAVE COMMUNITY COLLEGE                                        4MOHAVE                        04015     4120003594                1                                          13110101294     06
03500900500000KAYENTA UNIFIED SCH DIST 27                                     4NAVAJO                        04017           2778       03       .624                                       13310101294     06
03500900600000CEDAR UNIF SCH DIST 25                                          4NAVAJO                        04017           691        01       .1145                                      111      II     06
03500900700000BLUE RIDGE UNIFIED SCH DT 32                                    4NAVAJO                        04017           1964       03       .401                                       111      II     06
03500940100000PINON SCHOOL UNIF SCH DIST 4                                    4NAVAJO                        04017           809        01       1                                          111      II     06
03500940200000HEBER OVERGAARD SCHOOL DISTRICT                                 4NAVAJO                        04017           496        03       1                                          33309091294     06
03500960200000NORTHLAND PIONEER COLLEGE                                       4NAVAJO                        04017           22959               1                                          12209121294     06
03501000200000AMPHITHEATER SCHOOL DIST 10                                     4PIMA                          04019     85200014792      03       1                                          13309091294     06
03501000600000FLOWING WELLS SCHOOL DISTRICT 8                                 4PIMA                          04019     8520006037       03       .2872                                      13310121294     06
03501001000000MARANA UNIFIED DIST NO 6                                        4PIMA                          04019     8520009303       03       1                                          23309091294     06
03501001500000SUNNYSIDE SCHOOL DISTRICT 12                                    4PIMA                          04019     85200014100      03       1                                          13310121294     06
03501001800000TUCSON UNIFIED SCHOOL DISTRICT 1                                4PIMA                          04019     85200060529      03       1                                          111      II     06
03501080100000PIMA CO JR COLLEGE DIST                                         4PIMA                          04019     8520000                   1                                          23309121294     06
