01000000000000ALABAMA                                                         3                              01                                  1                                          111      94       
02000000000000ALASKA                                                          4                              02                                  1                                          111      94       
03000000000000ARIZONA                                                         4                              04                                  1                                          111      94       
04000000000000ARKANSAS                                                        3                              05                                  1                                          111      94       
05000000000000CALIFORNIA                                                      4                              06                                  1                                          111      94       
06000000000000COLORADO                                                        4                              08                                  1                                          111      94       
07000000000000CONNECTICUT                                                     1                              09                                  1                                          111      94       
08000000000000DELAWARE                                                        3                              10                                  1                                          111      94       
10000000000000FLORIDA                                                         3                              12                                  1                                          111      94       
11000000000000GEORGIA                                                         3                              13                                  1                                          111      94       
12000000000000HAWAII                                                          4                              15                                  1                                          111      94       
13000000000000IDAHO                                                           4                              16                                  1                                          111      94       
14000000000000ILLINOIS                                                        2                              17                                  1                                          111      94       
15000000000000INDIANA                                                         2                              18                                  1                                          111      94       
16000000000000IOWA                                                            2                              19                                  1                                          111      94       
17000000000000KANSAS                                                          2                              20                                  1                                          111      94       
18000000000000KENTUCKY                                                        3                              21                                  1                                          111      94       
19000000000000LOUISIANA                                                       3                              22                                  1                                          111      94       
20000000000000MAINE                                                           1                              23                                  1                                          111      94       
21000000000000MARYLAND                                                        3                              24                                  1                                          111      94       
22000000000000MASSACHUSETTS                                                   1                              25                                  1                                          111      94       
23000000000000MICHIGAN                                                        2                              26                                  1                                          111      94       
24000000000000MINNESOTA                                                       2                              27                                  1                                          111      94       
25000000000000MISSISSIPPI                                                     3                              28                                  1                                          111      94       
26000000000000MISSOURI                                                        2                              29                                  1                                          111      94       
27000000000000MONTANA                                                         4                              30                                  1                                          111      94       
28000000000000NEBRASKA                                                        2                              31                                  1                                          111      94       
29000000000000NEVADA                                                          4                              32                                  1                                          111      94       
30000000000000NEW HAMPSHIRE                                                   1                              33                                  1                                          111      94       
31000000000000NEW JERSEY                                                      1                              34                                  1                                          111      94       
32000000000000NEW MEXICO                                                      4                              35                                  1                                          111      94       
33000000000000NEW YORK                                                        1                              36                                  1                                          111      94       
34000000000000NORTH CAROLINA                                                  3                              37                                  1                                          111      94       
35000000000000NORTH DAKOTA                                                    2                              38                                  1                                          111      94       
36000000000000OHIO                                                            2                              39                                  1                                          111      94       
37000000000000OKLAHOMA                                                        3                              40                                  1                                          111      94       
38000000000000OREGON                                                          4                              41                                  1                                          111      94       
39000000000000PENNSYLVANIA                                                    1                              42                                  1                                          111      94       
40000000000000RHODE ISLAND                                                    1                              44                                  1                                          111      94       
41000000000000SOUTH CAROLINA                                                  3                              45                                  1                                          111      94       
42000000000000SOUTH DAKOTA                                                    2                              46                                  1                                          111      94       
43000000000000TENNESSEE                                                       3                              47                                  1                                          111      94       
44000000000000TEXAS                                                           3                              48                                  1                                          111      94       
45000000000000UTAH                                                            4                              49                                  1                                          111      94       
46000000000000VERMONT                                                         1                              50                                  1                                          111      94       
47000000000000VIRGINIA                                                        3                              51                                  1                                          111      94       
48000000000000WASHINGTON                                                      4                              53                                  1                                          111      94       
49000000000000WEST VIRGINIA                                                   3                              54                                  1                                          111      94       
50000000000000WISCONSIN                                                       2                              55                                  1                                          111      94       
51000000000000WYOMING                                                         4                              56                                  1                                          111      94       
