00600000000000FEDERAL GOVERNMENT                                                                             00000                                                                          111      95       
01000000000000ALABAMA                                                         3                              01              4246205             1                                                   95       
01100200200000BALDWIN COUNTY                                                  3                              0100399003516000115685              1                                          133      95     04
01100700700000BUTLER COUNTY                                                   3                              0101399013      21930               1                                          133      95     04
01100800800000CALHOUN COUNTY                                                  3                              0101599015045000116872              1                                          111      II     04
01101001000000CHEROKEE COUNTY                                                 3                              0101999019      20475               .7811                                      133      95     04
01101101100000CHILTON COUNTY                                                  3                              0102199021      34197               .4734                                      133      95     04
01101501500000CLEBURNE COUNTY                                                 3                              0102999029      13238               .1716                                      133      95     04
01102202200000CULLMAN COUNTY                                                  3                              0104399043      71580               1                                          111      II     04
01102502500000DE KALB COUNTY                                                  3                              0104999049      57488               .3524                                      111      II     04
01102702700000ESCAMBIA COUNTY                                                 3                              0105399053      36414               .75                                        111      II     04
01102802800000ETOWAH COUNTY                                                   3                              0105599055288000100427              1                                          111      II     04
01103403400000HENRY COUNTY                                                    3                              0106799067      15725               .1339                                      133      95     04
01103503500000HOUSTON COUNTY                                                  3                              010699906921800083865               1                                          111      II     04
01103603600000JACKSON COUNTY                                                  3                              0107199071      49551               .3908                                      133      95     04
01103703700000JEFFERSON COUNTY                                                3                              0107399073100000656613              1                                          133      95     04
01103803800000LAMAR COUNTY                                                    3                              0107599075      15736               .2359                                      111      II     04
01103903900000LAUDERDALE COUNTY                                               3                              010779907726500083153               1                                          133      95     04
01104404400000MACON COUNTY                                                    3                              0108799087      24159               .1259                                      111      II     04
01104504500000MADISON COUNTY                                                  3                              0108999089344000258036              1                                          133      95     04
01104904900000MOBILE COUNTY                                                   3                              0109799097516000396465              1                                          133      95     04
01105105100000MONTGOMERY COUNTY                                               3                              0110199101524000218239              1                                          133      95     04
01105205200000MORGAN COUNTY                                                   3                              0110399103203000106178              1                                          133      95     04
01105405400000PICKENS COUNTY                                                  3                              0110799107      20938               .4387                                      133      95     04
01105805800000ST CLAIR COUNTY                                                 3                              011159911510000055930               .2733                                      111      II     04
01105905900000SHELBY COUNTY                                                   3                              0111799117100000118244              1                                          133      95     04
01106106100000TALLADEGA COUNTY                                                3                              0112199121      75964               .3872                                      133      95     04
01106206200000TALLAPOOSA COUNTY                                               3                              0112399123      39602               .2069                                      133      95     04
01106306300000TUSCALOOSA COUNTY                                               3                              0112599125860000157091              1                                          133      95     04
01106406400000WALKER COUNTY                                                   3                              0112799127      69179               1                                          133      95     04
01200100300000PRATTVILLE CITY                                                 3                              010016232852400024118               1                                          123      95     04
01200200100000BAY MINETTE CITY                                                3                              01003046605160008455                .7607                                      133      95     04
01200200200000DAPHNE CITY                                                     3                              010031964851600014479               1                                          133      95     04
01200200400000FAIRHOPE CITY                                                   3                              010032524051600010524               .6695                                      111      II     04
01200200500000FOLEY CITY                                                      3                              01003269925160006572                1                                          133      95     04
01200220100000SPANISH FORT CITY                                               3                              01003719765160003327                1                                          133      95     04
01200250100000GULF SHORES CITY                                                3                              01003322725160004479                1                                          133      95     04
01200250200000LOXELY TOWN                                                     3                              01003446085160001696                .1173                                      111      II     04
01200300400000EUFAULA CITY                                                    3                              0100524568      13724               .7916                                      133      95     04
01200500300000ONEONTA CITY                                                    3                              01009570001000005024                1                                          133      95     04
01200560100000SUSAN MOORE TOWN                                                3                              0100974160100000695                 .02                                        111      II     04
01200700300000GREENVILLE CITY                                                 3                              0101331912      7976                1                                          133      95     04
01200800100000ANNISTON CITY                                                   3                              010150185204500027206               1                                          133      95     04
01200800400000JACKSONVILLE CITY                                               3                              010153827204500010987               .7631                                      111      II     04
01200800600000OXFORD CITY                                                     3                              010155757604500010422               1                                          111      II     04
01200800700000PIEDMONT CITY                                                   3                              01015596400450006004                .4649                                      144      95     04
01200900200000LAFAYETTE CITY                                                  3                              0101740672      3318                .3278                                      111      II     04
01201040100000SAND ROCK TOWN                                                  3                              0101967920      454                 1                                          111      95     04
01201200100000BUTLER CITY                                                     3                              0102311032      1843                1                                          111      II     04
01201300100000COFFEEVILLE TOWN                                                3                              0102516264      394                 .02                                        111      95     04
01201300400000JACKSON CITY                                                    3                              0102538152      6152                1                                          141      95     04
01201600100000ELBA CITY                                                       3                              0103123296      4138                .405                                       144      95     04
01201600200000ENTERPRISE CITY                                                 3                              0103124184      21272               1                                          144      95     04
01201700400000MUSCLE SHOALS CITY                                              3                              010335301626500010237               1                                          133      95     04
01201700500000SHEFFIELD CITY                                                  3                              010336964826500010278               1                                          133      95     04
01202000100000ANDALUSIA CITY                                                  3                              0103901708      9252                .7099                                      133      95     04
01202000500000OPP CITY                                                        3                              0103957120      7034                1                                          111      II     04
01202200100000CULLMAN CITY                                                    3                              0104318976      18081               1                                          133      95     04
01202200300000HANCEVILLE CITY                                                 3                              0104332968      3066                .4019                                      144      95     04
01202220100000DODGE CITY TOWN                                                 3                              0104320955      467                 1                                          122      95     04
01202300400000OZARK CITY                                                      3                              010455764821800013205               1                                          133      95     04
01202400200000SELMA CITY                                                      3                              0104769120      24647               1                                          133      95     04
01202500300000FORT PAYNE CITY                                                 3                              0104927616      12756               1                                          133      95     04
01202600200000TALLASSEE CITY                                                  3                              01051746885240005840                1                                          122      95     04
01202700100000ATMORE CITY                                                     3                              0105303004      8090                .5895                                      111      II     04
01202700200000BREWTON CITY                                                    3                              0105309208      6059                .2825                                      144      95     04
01202800200000ATTALLA CITY                                                    3                              01055030282880007544                .7713                                      144      95     04
01202800300000GADSDEN CITY                                                    3                              010552869628800046550               1                                          144      95     04
01202800400000GLENCOE CITY                                                    3                              01055299922880005126                .1633                                      144      95     04
01202890100000RIDGEVILLE TOWN                                                 3                              0105564656288000187                 .02                                        111      95     04
01203000400000RUSSELLVILLE CITY                                               3                              0105967056      8098                1                                          111      II     04
01203200200000EUTAW CITY                                                      3                              0106324664      2218                1                                          133      95     04
01203500200000COLUMBIA TOWN                                                   3                              0106916744218000935                 1                                          144      95     04
01203500400000DOTHAN CITY                                                     3                              010692118421800055792               1                                          133      95     04
01203600100000BRIDGEPORT CITY                                                 3                              0107109328      2985                1                                          111      II     04
01203600500000SCOTTSBORO CITY                                                 3                              0107168736      14607               1                                          111      II     04
01203600700000STEVENSON CITY                                                  3                              0107173080      2062                1                                          141      95     04
01203620100000HY-TOP TOWN                                                     3                              0107137264      317                 1                                          111      95     04
01203620200000PLEASANT GROVES TOWN                                            3                              0107161038      454                 1                                          111      95     04
01203700100000ADAMSVILLE CITY                                                 3                              01073004601000004548                .359                                       133      95     04
01203700200000BESSEMER CITY                                                   3                              010730598010000031822               1                                          111      II     04
01203700300000BIRMINGHAM CITY                                                 3                              0107307000100000264527              1                                          322      95     04
01203700400000BRIGHTON CITY                                                   3                              01073094001000003851                .5614                                      111      II     04
01203700800000FAIRFIELD CITY                                                  3                              010732512010000012387               1                                          111      II     04
01203701200000HOMEWOOD CITY                                                   3                              010733580010000023869               1                                          124      95     04
01203701300000IRONDALE CITY                                                   3                              01073378641000009704                .3007                                      133      95     04
01203701900000MOUNTAIN BROOK CITY                                             3                              010735169610000020143               .4664                                      133      95     04
01203702300000TARRANT CITY                                                    3                              01073749761000008029                1                                          422      95     04
01203702500000TRUSSVILLE CITY                                                 3                              01073769441000008459                .6872                                      133      95     04
01203702600000VESTAVIA HILLS CITY                                             3                              010737855210000019854               .8895                                      121      95     04
01203770200000WEST JEFFERSON TOWN                                             3                              0107381336100000390                 1                                          311      95     04
01203780100000HOOVER CITY                                                     3                              010733589610000041964               1                                          133      95     04
01203800600000VERNON CITY                                                     3                              0107578480      2289                .5569                                      111      II     04
01203900100000FLORENCE CITY                                                   3                              010772689626500036770               1                                          111      II     04
01204000100000COURTLAND TOWN                                                  3                              0107918040203000734                 1                                          111      II     04
01204100100000AUBURN CITY                                                     3                              0108103076      35862               1                                          111      II     04
01204100200000OPELIKA CITY                                                    3                              0108157048      23818               1                                          133      95     04
01204200100000ARDMORE TOWN                                                    3                              01083022603440001158                .0517                                      111      II     04
01204200200000ATHENS CITY                                                     3                              010830295634400018705               1                                          133      95     04
01204320100000GORDONVILLE TOWN                                                3                              01085           400                 1                                          111      II     04
01204400200000TUSKEGEE CITY                                                   3                              0108777304      12143               .4114                                      111      II     04
01204500100000HUNTSVILLE CITY                                                 3                              0108937000344000160325              1                                          133      95     04
01204500200000MADISON CITY                                                    3                              010894578434400020241               .1878                                      133      95     04
01204600200000DEMOPOLIS CITY                                                  3                              0109120296      7578                .7518                                      122      95     04
01204800100000ALBERTVILLE CITY                                                3                              0109500988      17146               1                                          144      95     04
01204800200000ARAB CITY                                                       3                              0109502116      7698                1                                          144      95     04
01204800300000BOAZ CITY                                                       3                              0109507912      8101                1                                          111      II     04
01204800500000GUNTERSVILLE CITY                                               3                              0109532416      8743                1                                          144      95     04
01204900200000BAYOU LA BATRE CITY                                             3                              01097046845160002415                .6059                                      133      95     04
01204900300000CITRONELLE CITY                                                 3                              01097150645160004334                1                                          133      95     04
01204900400000MOBILE CITY                                                     3                              0109750000516000204490              1                                          133      95     04
01204900500000PRICHARD CITY                                                   3                              010976249651600033263               1                                          111      II     04
01204940100000DAUPHIN ISLAND TOWN                                             3                              01097197445160001227                1                                          133      95     04
01204950100000SARALAND CITY                                                   3                              010976816051600012234               1                                          133      95     04
01205000400000MONROEVILLE CITY                                                3                              0109950192      6859                1                                          111      II     04
01205100100000MONTGOMERY CITY                                                 3                              0110151000524000195471              1                                          133      95     04
01205200200000DECATUR CITY                                                    3                              011032010420300052465               1                                          133      95     04
01205200400000HARTSELLE CITY                                                  3                              011033344820300011664               1                                          133      95     04
01205420100000MACEDONIA TOWN                                                  3                              0110745316      290                 1                                          111      II     04
01205600100000ROANOKE CITY                                                    3                              0111165040      6593                1                                          111      II     04
01205700200000PHENIX CITY                                                     3                              011135947218000028913               1                                          111      II     04
01205800100000ASHVILLE TOWN                                                   3                              01115029081000001683                .0733                                      144      95     04
01205840100000ARGO TOWN                                                       3                              01115023201000001277                1                                          133      95     04
01205900200000CALERA CITY                                                     3                              01117114161000003177                .7754                                      133      95     04
01205900900000WILSONVILLE TOWN                                                3                              01117828481000001190                1                                          133      95     04
01205901000000WILTON TOWN                                                     3                              0111782872100000643                 .0254                                      121      95     04
01205920100000INDIAN SPRINGS TOWN                                             3                              01117374651000001115                1                                          111      95     04
01205970100000PELHAM CITY                                                     3                              011175884810000012048               1                                          122      95     04
01206000500000LIVINGSTON CITY                                                 3                              0111943720      3881                .304                                       111      II     04
01206100200000CHILDERSBURG CITY                                               3                              0112114464      5009                1                                          133      95     04
01206100500000SYLACAUGA CITY                                                  3                              0112174352      13838               1                                          133      95     04
01206100600000TALLADEGA CITY                                                  3                              0112174592      19184               1                                          111      II     04
01206200100000ALEXANDER CITY CITY                                             3                              0112301132      15095               1                                          134      95     04
01206200400000DADEVILLE CITY                                                  3                              0112319336      3453                .074                                       111      II     04
01206300200000TUSCALOOSA CITY                                                 3                              011257725686000079797               1                                          133      95     04
01206400200000CORDOVA CITY                                                    3                              0112717368      2579                .2006                                      111      II     04
01206400400000JASPER CITY                                                     3                              0112738416      13850               1                                          111      II     04
01206500100000CHATOM TOWN                                                     3                              0112914008      1113                1                                          111      II     04
01206600100000CAMDEN CITY                                                     3                              0113111512      2605                1                                          144      95     04
01206640100000YELLOW BLUFF TOWN                                               3                              0113183976      231                 1                                          311      95     04
01206700200000DOUBLE SPRINGS TOWN                                             3                              0113321280      1225                .1168                                      121      95     04
01400250100000BALDWIN CO SOIL CONS DIST                                       3                              01003     51600088                  .02                                        111      95     03
01400280100000FOLEY CITY HOUSING AUTH                                         3                              01003     51600050                  .2478                                      133      95     03
01400290800000THOMAS HOSPITAL BOARD                                           3                              01003     51600040                  1                                          133      95     03
01400290900000SOUTH BALDWIN HOSPITAL BOARD                                    3                              01003     51600040                  1                                          133      94     03
01400500100000BLOUNT COUNTY HOSPITAL BOARD                                    3                              01009     10000040                  .5837                                      133      95     03
01400640200000EAST CENTRAL MENTAL HEALTH BOARD                                3                              01011           32                  1                                          122      95     03
01400740100000BUTLER COUNTY WATER AUTHORITY                                   3                              01013           91                  .3008                                      111      95     03
01400840100000ANNISTON WATER WORKS & SEWER BOARD                              3                              01015     04500098                  1                                          131      95     07
01400840200000NORTHEAST ALABAMA REGIONAL MEDICAL CENTER                       3                              01015     04500040                  1                                          133      95     03
01400840300000CALHOUN-CLEBURNE MENTAL HLTH BD                                 3                              01015     04500032                  1                                          111      95     03
01400880100000CALHOUN COUNTY WATER-FIRE PROTECT AUTH                          3                              01015     04500091                  .4197                                      144      95     03
01400900300000LANETT CITY HOUSING AUTHORITY                                   3                              01017           50                  1                                          144      95     03
01401140100000CHILTON WATER & FIRE PROT AUTH                                  3                              01021           91                  .385                                       131      95     03
01401300100000CLARKE-MOBILE COUNTIES GAS DT                                   3                              01025           93                  1                                          144      89     03
01401400100000CLAY CO HOSPITAL BD                                             3                              01027           40                  .7432                                      133      95     03
01401450300000LINEVILLE HSG AUTH                                              3                              01027           50                  .461                                       122      95     03
01401450400000EAST CENTRAL AL GAS DISTRICT                                    3                              01027           93                  1                                          122      93     03
01401700100000NW AL HEALTHCARE AUTH                                           3                              01033     26500040                  1                                          133      95     03
01401740100000NORTH ALABAMA GAS DIST                                          3                              01033     26500093                  1                                          131      95     03
01401740400000RIVERBEND CENTER FOR MENTAL HLTH                                3                              01033     26500032                  1                                          111      95     03
01401870100000CONECUH-MONROE CO GAS DISTRICT                                  3                              01035           93                  1                                          133      93     03
01402000200000SOUTHEAST ALABAMA NATURAL GAS DIST                              3                              01039           93                  1                                          113      94     03
01402200100000CULLMAN CITY HOUSING AUTH                                       3                              01043           50                  .2112                                      133      95     03
01402240300000CULLMAN MENTAL HEALTH CENTER                                    3                              01043           32                  1                                          121      95     03
01402250200000CULLMAN JEFFERSON CO GAS DIST                                   3                              01043           93                  1                                          133      95     03
01402280100000CULLMAN CO HEALTH CARE AUTH                                     3                              01043           40                  1                                          133      92     03
01402300100000DALE COUNTY HOSPITAL BOARD                                      3                              01045     21800040                  1                                          133      95     03
01402500300000DEKALB CHEROKEE NATURAL GAS DIST                                3                              01049           93                  1                                          133      95     03
01402500400000FT. PAYNE CITY HOUSING AUTHORITY                                3                              01049           50                  .4894                                      124      95     03
01402500500000FORT PAYNE CITY IMPROVEMENT AUTH                                3                              01049           92                  1                                          131      95     03
01402560300000RUHAMA FIRE PROTEC AUTH                                         3                              01049           24                  .02                                        111      94     07
01402650100000CENTRAL ALABAMA MEDICAL CENTER                                  3                              01051     52400040                  .4565                                      133      95     03
01402690100000CENTRAL ELMORE CO WTR AUTH                                      3                              01051     52400091                  .1054                                      141      92     03
01402700100000ESCAMBIA CO HEALTHCARE AUTH                                     3                              01053           40                  1                                          133      94     03
01402800200000GADSDEN HOUSING AUTH                                            3                              01055     28800050                  .6471                                      133      95     03
01402840100000ETOWAH-DEKALB-CHEROKEE MENTAL HEALTH BOARD                      3                              01055     28800032                  1                                          121      95     03
01403100200000GENEVA CO HEALTH CARE AUTH., INC.  DBA                          3                              01061           40                  .4807                                      133      94     03
01403100300000GENEVA CO. NATURAL GAS DISTRICT                                 3                              01061           93                  1                                          121      95     03
01403290100000GREENE CO HOUSING AUTH                                          3                              01063           50                  .5458                                      133      95     03
01403370300000HALE CO HOSPITAL                                                3                              01065           40                  .198                                       133      91     03
01403500400000HOUSTON COUNTY HEALTHCARE AUTH                                  3                              01069     21800040                  1                                          133      91     03
01403600100000JACKSON CO HOSPITAL BOARD                                       3                              01071           40                  1                                          133      94     03
01403700100000BIRMINGHAM HOUSING AUTH                                         3                              01073     10000050                  1                                          133      95     03
01403700300000JEFFERSON CO RURAL HOUSING AUTHORITY                            3                              01073     10000050                  1                                          133      93     03
01403720100000BIRMINGHAM AIRPORT AUTHORITY                                    3                              01073     10000001                  1                                          133      95     03
01403720300000BESSEMER HEALTH CARE AUTHORITY                                  3                              01073     10000032                  1                                          111      95     03
01403740100000JEFFERSON-BLOUNT-ST CLAIR MENTAL RETARDATION AUTHORITY          3                              01073     10000032                  1                                          122      95     03
01403750100000BESSEMER HSG AUTH                                               3                              01073     10000050                  1                                          133      95     03
01403760200000BIRMINGHAM PARKING AUTH                                         3                              01073     10000060                  1                                          133      95     03
01403760400000BIRMINGHAM CITY PUB BLDG AUTH                                   3                              01073     10000089                  1                                          111      95     03
01403760500000WATER WORKS BOARD                                               3                              01073     10000091                  1                                          133      95     03
01403761200000BIRMINGHAM JFRSN CIVC CTR AUTH                                  3                              01073     10000061                  1                                          124      95     03
01403790100000BIRMINGHAM JEFFERSON CO TRANSIT AUTH                            3                              01073     10000094                  1                                          133      95     03
01403800200000LAMAR CO NATURAL GAS DIST                                       3                              01075           93                  1                                          141      92     03
01403900100000FLORENCE HOUSING AUTHORITY                                      3                              01077     26500050                  1                                          133      95     03
01403990800000LAUDERDALE CO FLORENCE HOSP BD                                  3                              01077     26500040                  1                                          133      95     03
01404000100000LAWRENCE COUNTY HOSPITAL BOARD                                  3                              01079     20300040                  .8598                                      233      94     03
01404070200000MOULTON WATER AUTHORITY                                         3                              01079     20300091                  .203                                       144      95     03
01404080100000LAWRENCE-COLBERT CO GAS UTILITY DIST                            3                              01079     20300093                  1                                          141      94     03
01404100200000EAST ALABAMA HEALTHCARE AUTH                                    3                              01081           40                  1                                          133      94     03
01404200200000ATHENS & LIMESTONE CO HEALTH CARE AUTHORITY                     3                              01083     34400040                  1                                          133      95     03
01404220100000ELK RIVER DEVELOPMENT AGENCY                                    3                              01083     34400059                  1                                          114      95     03
01404460100000MACON CO WATER & FIRE PROTEC AUTH                               3                              01087           91                  .4466                                      131      95     03
01404470100000TUSKEGEE HOUSING AUTH                                           3                              01087           50                  1                                          133      95     03
01404500100000HUNTSVILLE CITY HOUSING AUTH.                                   3                              01089     34400050                  1                                          133      95     03
01404540300000HUNTSVILLE-MADISON CO MENTAL HEALTH BOARD                       3                              01089     34400032                  1                                          133      95     03
01404570100000HUNTSVILLE-MADISON COUNTY AIRPORT AUTHORITY                     3                              01089     34400001                  1                                          133      95     03
01404640100000WEST ALABAMA MENTAL HEALTH BOARD                                3                              01091           32                  1                                          122      95     03
01404700400000HACKLEBURG HOUSING AUTHORITY                                    3                              01093           50                  .02                                        111      94     03
01404700600000NORTHWEST ALABAMA GAS DIST                                      3                              01093           93                  1                                          133      95     03
01404700700000WINFIELD HOUSING AUTHORITY                                      3                              01093           50                  .1683                                      133      95     03
01404740100000BEAR CREEK WATER WORKS                                          3                              01093           91                  .0319                                      141      95     03
01404800100000BOAZ CITY HOUSING AUTHORITY                                     3                              01095           50                  .7061                                      133      95     03
01404800200000MARSHALL CO GAS DISTRICT                                        3                              01095           93                  1                                          133      95     03
01404800300000MARSHALL CO HEALTHCARE AUTH                                     3                              01095           40                  1                                          133      94     03
01404900100000MOBILE HOUSING BD                                               3                              01097     51600050                  1                                          133      94     03
01404920300000MOBILE SOLID WASTE DISP AUTH                                    3                              01097     51600081                  1                                          111      95     03
01404940100000MOBILE AIRPORT AUTH                                             3                              01097     51600001                  1                                          133      94     03
01404960100000MOBIL TRANSIT AUTHORITY                                         3                              01097     51600094                  1                                          133      95     03
01404970400000PRICHARD CITY HOUSING AUTH                                      3                              01097     51600050                  .5724                                      133      95     03
01404980100000CHICKASAW CITY HOUS AUTH                                        3                              01097     51600050                  .3004                                      144      95     03
01404990500000DAUPHIN ISLAND WATER-SEWER-FIRE PROTECTN AUTH                   3                              01097     51600098                  .5672                                      133      95     07
01405070100000MONROE CO HOSPITAL BD                                           3                              01099           40                  .6666                                      133      95     03
01405080100000MONROEVILLE HOUSING AUTH                                        3                              01099           50                  .1199                                      122      95     03
01405100200000MONTGOMERY CITY HOUSING AUTH.                                   3                              01101     52400050                  1                                          132      95     03
01405140100000MONTGOMERY AREA MENTAL HEALTH AUTHORITY                         3                              01101     52400032                  1                                          133      95     03
01405140200000ALABAMA MUNICIPAL ELECTRIC AUTH                                 3                              01101     52400092                  1                                          133      95     03
01405200100000DECATUR CITY HOUSING AUTH                                       3                              01103     20300050                  1                                          133      95     03
01405220100000DECATUR HEALTH CARE AUTHORITY                                   3                              01103     20300040                  1                                          111      95     03
01405240100000DECATUR-MORGAN COUNTY PORT AUTH                                 3                              01103     20300087                  .05                                        111      95     03
01405260200000WEST MORGAN-EAST LAWRENCE WATER AUTHORITY                       3                              01103     20300091                  .598                                       144      95     03
01405340200000CAHABA BD FOR MENTAL HEALTH & MENTAL RETARDATION                3                              01105           32                  1                                          111      95     03
01405480200000PICKENS CO HOSPITAL ASSN                                        3                              01107           40                  .6589                                      111      95     03
01405480300000PICKENS CO NATURAL GAS DIST                                     3                              01107           93                  1                                          144      95     03
01405580200000EDGE REGIONAL MEDICAL CENTER                                    3                              01109           40                  .8347                                      133      91     03
01405700100000PHENIX CITY HSG AUTH                                            3                              01113     18000050                  1                                          122      95     03
01405900400000SHELBY CO HOSP BD                                               3                              01117     10000040                  1                                          133      94     03
01405940200000MENTAL HLTH BD OF CHILTON AND SHELBY COUNTIES                   3                              01117     10000032                  1                                          111      95     03
01406100300000SYLACAUGA HOUSING AUTHORITY                                     3                              01121           50                  .0625                                      133      95     03
01406140100000CHEAHA REG MENTH HLTH & MENTAL RETARDATION BOARD                3                              01121           32                  1                                          111      95     03
01406240100000EAST AL MENTAL HLTH & MENTAL RETARDATION BOARD                  3                              01123           32                  1                                          111      95     03
01406280200000ALEXANDER CITY HOUS AUTH                                        3                              01123           50                  .563                                       133      95     03
01406300100000TUSCALOOSA HSG AUTH                                             3                              01125     86000050                  1                                          133      95     03
01406340200000BIBB-PICKENS-TUSCALOOSA MENTAL HEALTH BOARD                     3                              01125     86000032                  1                                          111      95     03
01406360200000TUSCALOOSA CO PARKING AND TRANSIT AUTH                          3                              01125     86000094                  1                                          144      95     03
01406390100000DCH HEALTHCARE AUTHORITY                                        3                              01125     86000040                  1                                          133      95     03
01406400300000JASPER CITY HOUSING AUTH                                        3                              01127           50                  .4363                                      141      94     03
01406690100000WILCOX COUNTY GAS DISTRICT                                      3                              01131           93                  1                                          144      95     03
01406700100000HALEYVILLE HOUSING AUTH                                         3                              01133           50                  .3798                                      122      95     03
01406740100000NORTHWEST AL MENTAL HLTH BOARD                                  3                              01133           32                  1                                          122      95     03
01500100100000AUTAUGA CO SCH DIST                                             3                              01001     5240007568       03       .68                                        111      II     06
01500200100000BALDWIN CO SCH DIST                                             3                              01003     51600019961      03       1                                          311      95     06
01500500100000BLOUNT CO SCH DIST                                              3                              01009     1000006239       03       .6228                                      211      95     06
01500800200000ANNISTON CTY SCH DST                                            3                              01015     0450003584       03       .6373                                      111      95     06
01500800300000CALHOUN CO SCH DIST                                             3                              01015     04500010330      03       1                                          111      II     06
01500900100000CHAMBERS CO SCH DIST                                            3                              01017           4145       03       .616                                       211      95     06
01501100100000CHILTON CO SCH DIST                                             3                              01021           6228       03       .6589                                      311      95     06
01501600300000ENTERPRISE CTY SCH DIST                                         3                              01031           5344       03       .5564                                      211      95     06
01501750100000MUSCLE SHOALS SCH DIST                                          3                              01033     2650002267       03       .2849                                      211      95     06
01502000100000ANDALUSIA CTY SCH DIST                                          3                              01039           2091       03       .2582                                      211      95     06
01502000400000OPP CITY SCH DIST                                               3                              01039           1605       03       .1821                                      111      95     06
01502100100000CRENSHAW CO SCH DIST                                            3                              01041           2382       03       .2921                                      111      II     06
01502200200000CULLMAN CO SCH DIST                                             3                              01043           9209       03       1                                          111      II     06
01502300200000OZARK CITY SCH DIST                                             3                              01045     2180003370       03       .3948                                      111      95     06
01502500100000DE KALB CO SCH DIST                                             3                              01049           7247       03       .8124                                      311      95     06
01502600100000ELMORE CO SCH DIST                                              3                              01051     5240008647       03       .7592                                      111      95     06
01502700300000ESCAMBIA CO SCH DIST                                            3                              01053           4965       03       .6836                                      311      95     06
01502800200000ETOWAH CO SCH DIST                                              3                              01055     2880008668       03       1                                          111      II     06
01502800300000GADSDEN CITY SCH DIST                                           3                              01055     2880005883       03       .8433                                      311      95     06
01503100100000GENEVA CO SCH DIST                                              3                              01061           2860       03       .3488                                      111      95     06
01503200100000GREENE CO SCH DIST                                              3                              01063           2244       03       .3309                                      311      95     06
01503500100000DOTHAN CITY SCH DIST                                            3                              01069     2180009641       03       1                                          111      95     06
01503500200000HOUSTON CO SCH DIST                                             3                              01069     2180005754       03       .5771                                      111      95     06
01503600100000JACKSON CO SCH DIST                                             3                              01071           6363       03       1                                          311      95     06
01503700200000BIRMINGHAM CITY SCH DIST                                        3                              01073     10000041839      03       1                                          111      II     06
01503700400000JEFFERSON CO SCH DIST                                           3                              01073     10000040422      03       1                                          111      II     06
01503740100000HOOVER CITY SCH DIST                                            3                              01073     1000007671       03       1                                          111      95     06
01503750100000MT BROOK CTY SCH DIST                                           3                              01073     1000003650       03       .5216                                      111      95     06
01503780200000MIDFIELD CITY SCHOOL DIST                                       3                              01073     1000001736       03       .2236                                      111      95     06
01503780400000VESTAVIA HILLS CTY SCH DIST                                     3                              01073     1000004164       03       .5553                                      111      95     06
01503800100000LAMAR CO SCH DIST                                               3                              01075           2991       03       .4009                                      111      95     06
01503900100000FLORENCE CITY SCH DIST                                          3                              01077     2650004958       03       .7859                                      111      II     06
01503900200000LAUDERDALE CO SCH DIST                                          3                              01077     2650008490       03       1                                          211      95     06
01504200100000ATHENS CITY SCH DIST                                            3                              01083     3440002915       03       .4282                                      111      95     06
01504200200000LIMESTONE CO SCH DIST                                           3                              01083     3440007314       03       .7421                                      111      II     06
01504400100000MACON CO SCH DIST                                               3                              01087           4265       03       .6365                                      111      II     06
01504500100000HUNTSVILLE CITY SCH DIST                                        3                              01089     34400024184      03       1                                          111      II     06
01504500200000MADISON CO SCH DIST                                             3                              01089     34400017191      03       1                                          311      95     06
01504600100000DEMOPOLIS CITY SCH DIST                                         3                              01091           2178       03       .2166                                      311      95     06
01504700100000MARION CO SCH DIST                                              3                              01093           4087       03       .4737                                      211      95     06
01504700200000WINFIELD CTY SCH DIST                                           3                              01093           1416       03       .1482                                      311      95     06
01504800100000MARSHALL CO SCH DIST                                            3                              01095           6707       03       .5975                                      211      95     06
01504880100000ARAB CIT SCHOOL DIST                                            3                              01095           2503       03       .2546                                      211      95     06
01504900100000MOBILE CO SCH DIST                                              3                              01097     51600064645      03       1                                          111      II     06
01505100100000MONTGOMERY CO SCH DIST                                          3                              01101     52400034746      03       1                                          111      II     06
01505200100000DECATUR CITY SCH DIST                                           3                              01103     2030008592       03       1                                          211      95     06
01505290100000HARTSELLE CTY SCH DIST                                          3                              01103     2030002916       03       .3701                                      111      II     06
01505400100000PICKENS CO SCH DIST                                             3                              01107           3951       03       .4676                                      111      II     06
01505600100000RANDOLPH CO SCH DIST                                            3                              01111           2242       03       .295                                       311      95     06
01505600200000ROANOKE CITY SCH DIST                                           3                              01111           1582       03       .1397                                      111      95     06
01505700100000PHENIX CITY SCH DIST                                            3                              01113     1800004883       03       .6226                                      111      95     06
01505700200000RUSSELL CO SCH DIST                                             3                              01113     1800003707       03       .401                                       211      95     06
01505800100000ST CLAIR CO SCH DIST                                            3                              01115     1000006275       03       .5673                                      111      II     06
01505860100000PELL CITY SCHOOL DIST                                           3                              01115     1000003439       03       .3291                                      111      95     06
01505900100000SHELBY CO SCH DIST                                              3                              01117     10000017773      03       1                                          111      95     06
01506000100000SUMTER CO SCH DIST                                              3                              01119           2866       03       .4002                                      111      95     06
01506100300000TALLADEGA CO SCH DIST                                           3                              01121           7816       03       1                                          211      95     06
01506200100000TALLAPOOSA CO SCH DIST                                          3                              01123           3300       03       .4126                                      111      95     06
01506300100000TUSCALOOSA CITY SCH DIST                                        3                              01125     86000010314      03       1                                          111      95     06
01506300200000TUSCALOOSA CO SCH DIST                                          3                              01125     86000014785      03       1                                          211      95     06
01506400300000WALKER CO SCH DIST                                              3                              01127           9192       03       1                                          311      95     06
01506600100000WILCOX CO SCH DIST                                              3                              01131           2803       03       .522                                       111      II     06
01506700100000WINSTON CO SCH DIST                                             3                              01133           2722       03       .3028                                      311      95     06
02000000000000ALASKA                                                          4                              02              602545              1                                                   95       
02100400100000BRISTOL BAY BOROUGH                                             4                              0206099060      1416       03       1                                          122      9595   04
02100600200000FAIRBANKS NORTH STAR BOROUGH                                    4                              0209099090      85418      03       1                                          111      IIii   04
02100900400000KANAI PENINSULA BOROUGH                                         4                              0212299122      45216      03       1                                          122      9595   04
02101000500000KETCHIKAN GATEWAY BOROUGH                                       4                              0213099130      14361      03       1                                          122      9595   04
02101101100000NORTHWEST ARCTIC BOROUGH                                        4                              0218899188      6561       03       1                                          233      9595   04
02101200600000KODIAK ISLAND BOROUGH                                           4                              0215099150      14963      03       1                                          133      9595   04
02101300700000MATANUSKA-SUSITNA BOROUGH                                       4                              0217099170      48684      03       1                                          111      II95   04
02101500800000NORTH SLOPE BOROUGH                                             4                              0218599185      6794       03       1                                          111      II95   04
02200100200000SAINT PAUL CITY                                                 4                              0201666470      832                 1                                          111      II     04
02200100400000UNALASKA CITY                                                   4                              0201680770      2252       03       1                                          111      IIii   04
02200140200000ATKA CITY                                                       4                              0201604210      45                  1                                          122      95     04
02200200100000ANCHORAGE MUNICIPALITY                                          4                              0202003000038000253649     03       1                                          111      IIii   04
02200300600000BETHEL CITY                                                     4                              0205006520      5274                1                                          111      II     04
02200600100000FAIRBANKS CITY                                                  4                              0209024230      34321               1                                          122      95     04
02200600200000NORTH POLE CITY                                                 4                              0209055910      1598                .4317                                      122      95     04
02200800100000JUNEAU CITY AND BOROUGH                                         4                              0211036400      28758      03       1                                          211      9595   04
02200900100000HOMER CITY                                                      4                              0212233140      3985                1                                          133      95     04
02200900300000KENAI CITY                                                      4                              0212238420      6889                1                                          111      II     04
02200900500000SEWARD CITY                                                     4                              0212268560      2981                1                                          133      95     04
02200900600000SOLDOTNA CITY                                                   4                              0212271640      3907                1                                          133      95     04
02201000100000KETCHIKAN CITY                                                  4                              0213038970      8781                1                                          122      95     04
02201100700000KOTZEBUE CITY                                                   4                              0218841830      2961                .2865                                      111      II     04
02201200200000KODIAK CITY                                                     4                              0215040950      7144                1                                          133      95     04
02201300200000PALMER CITY                                                     4                              0217058660      3563                1                                          133      95     04
02201300300000WASILLA CITY                                                    4                              0217083080      5119                .7812                                      122      95     04
02201400700000NOME CITY                                                       4                              0218054920      3549       03       1                                          233      95ii   04
02201640100000COFFMAN COVE CITY                                               4                              0220116360      310                 1                                          111      II     04
02201700100000SITKA CITY AND BOROUGH                                          4                              0222070540      8780       03       1                                          133      9595   04
02201800400000SKAGWAY CITY                                                    4                              0223270760      769        03       .3762                                      121      95ii   04
02202000100000CORDOVA CITY                                                    4                              0226117410      1993       03       1                                          133      95ii   04
02202000200000VALDEZ CITY                                                     4                              0226182200      4400       03       1                                          122      95ii   04
02202100200000CHEVAK CITY                                                     4                              0227013230      599                 .0422                                      322      95     04
02202200300000PETERSBURG CITY                                                 4                              0228060310      3193       03       1                                          122      9595   04
02202200500000WRANGELL CITY                                                   4                              0228086380      2743       03       1                                          111      II95   04
02202300500000GALENA CITY                                                     4                              0229027530      688        03       .3944                                      111      II95   04
02202300600000GRAYLING CITY                                                   4                              0229030060      196                 .0261                                      111      II     04
02202301300000NENANA CITY                                                     4                              0229053050      368        03       1                                          122      9595   04
02202301500000NULATO CITY                                                     4                              0229056350      380                 .2258                                      111      II     04
02202301700000SHAGELUK CITY                                                   4                              0229068670      126                 .02                                        111      II     04
02202400200000KING COVE CITY                                                  4                              0201339410      715                 .1437                                      111      95     04
02202420100000FALSE PASS CITY                                                 4                              0201324660      30                  1                                          131      95     04
02202520100000PILOT POINT CITY                                                4                              0216460640      97                  1                                          111      II     04
02202640100000ANDERSON CITY                                                   4                              0206803220      1906                1                                          133      95     04
02202700100000YAKUTAT CITY AND BOROUGH                                        4                              0228286498      710        03       1                                          111      IIii   04
02400240100000ALEUTIAN REG HOUS AUTH                                          4                              02020     03800050                  .8                                         222      90     03
02400300100000AVCP REGIONAL HOUSING AUTH.                                     4                              02050           50                  1                                          222      95     03
02400500100000BRISTOL BAY HOUSING AUTH                                        4                              02070           50                  1                                          233      95     03
02400640100000INTERIOR REG HOUS AUTHORITY                                     4                              02090           50                  1                                          133      94     03
02400800100000TLINGIT-HAIDA HOUSING AUTH                                      4                              02110           50                  1                                          131      94     03
02400840100000TLINGIT-HAIDA REG ELECTRICAL AUTHORITY                          4                              02110           92                  1                                          211      95     03
02401100100000NORTHWEST INUPIAT HSG AUTH                                      4                              02188           50                  .8                                         133      95     03
02401200100000KODIAK ISLAND HOUSING AUTH                                      4                              02150           50                  1                                          222      95     03
03000000000000ARIZONA                                                         4                              04              4305016             1                                                   95       
03100100100000APACHE COUNTY                                                   4                              0400199001      65512               1                                          133      95     04
03100200200000COCHISE COUNTY                                                  4                              0400399003      106915     01       .8235                                      133      9595   04
03100400400000GILA COUNTY                                                     4                              0400799007      44620               1                                          133      95     04
03100700700000MARICOPA COUNTY                                                 4                              04013990136200002346640    03       1                                          111      IIii   04
03100800800000MOHAVE COUNTY                                                   4                              0401599015412000116178              1                                          133      95     04
03101001000000PIMA COUNTY                                                     4                              0401999019852000731524     05       1                                          133      9595   04
03101101100000PINAL COUNTY                                                    4                              0402199021620000126743     05       1                                          133      95ii   04
03101301300000YAVAPAI COUNTY                                                  4                              0402599025      127844              .8                                         111      II     04
03101401400000YUMA COUNTY                                                     4                              0402799027936000127680              .6944                                      111      II     04
03200200400000SIERRA VISTA CITY                                               4                              0400366820      38271               .7382                                      133      95     04
03200300100000FLAGSTAFF CITY                                                  4                              040052362026200050708               1                                          122      95     04
03200500200000SAFFORD CITY                                                    4                              0400962000      8266                .4823                                      133      95     04
03200700100000AVONDALE CITY                                                   4                              040130472062000020650               .314                                       133      95     04
03200700200000BUCKEYE TOWN                                                    4                              04013079406200005093                .1464                                      133      95     04
03200700300000CHANDLER CITY                                                   4                              0401312000620000119227              1                                          111      II     04
03200700500000GILBERT TOWN                                                    4                              040132740062000051074               1                                          133      95     04
03200700600000GLENDALE CITY                                                   4                              0401327820620000168439              1                                          133      95     04
03200700800000MESA CITY                                                       4                              0401346000620000313649              1                                          133      95     04
03200700900000PEORIA CITY                                                     4                              040135405062000070139               1                                          133      95     04
03200701000000PHOENIX CITY                                                    4                              04013550006200001048949             1                                          333      95     04
03200701100000SCOTTSDALE CITY                                                 4                              0401365000620000152439              1                                          133      95     04
03200701200000TEMPE CITY                                                      4                              0401373000620000144289              1                                          133      95     04
03200740300000LITCHFIELD PARK CITY                                            4                              04013413306200003410                1                                          133      95     04
03200740400000FOUNTAIN HILLS TOWN                                             4                              040132530062000014289               1                                          133      95     04
03200740500000QUEEN CREEK TOWN                                                4                              04013581506200003082                1                                          111      95     04
03200840100000BULLHEAD CITY CITY                                              4                              040150822041200027175               1                                          133      95     04
03200860100000LAKE HAVASU CITY CITY                                           4                              040153937041200031895               .476                                       133      95     04
03200900200000SHOW LOW CITY                                                   4                              0401766470      6026                .1184                                      133      95     04
03201000200000TUCSON CITY                                                     4                              0401977000852000434726              1                                          133      95     04
03201020100000SAHUARITA TOWN                                                  4                              04019621408520001629                1                                          133      95     04
03201100100000CASA GRANDE CITY                                                4                              040211053062000021088               1                                          133      95     04
03201150200000MAMMOTH TOWN                                                    4                              04021439906200001904                .1467                                      133      95     04
03201300200000PRESCOTT CITY                                                   4                              0402557380      30386               1                                          133      95     04
03201340200000SEDONA CITY                                                     4                              0402565350      8291                1                                          133      95     04
03201400300000YUMA CITY                                                       4                              040278554093600067185               1                                          133      95     04
03201540100000QUARTZSITE TOWN                                                 4                              0401258010      1828                1                                          133      95     04
03400340300000PAGE HOSPITAL DISTRICT                                          4                              04005     26200040                  .5                                         111      95     03
03400701000000MARICOPA CO ELECT DIST 5                                        4                              04013     62000092                  1                                          133      95     03
03400702400000SALT RIVER PROJ AGR IMP POWER DIST                              4                              04013     62000099                  1                                          133      95     07
03400720300000AGUILA IRRIGATION DISTRICT                                      4                              04013     62000092                  1                                          111      95     03
03400720500000HARQUAHALA VALLEY POWER DISTRICT                                4                              04013     62000092                  1                                          111      95     03
03400741300000REGIONAL PUBLIC TRANSP AUTH                                     4                              04013     62000094                  1                                          122      95     03
03400760300000CENTRAL ARIZ WATER CONS DIST                                    4                              04013     62000091                  1                                          133      95     03
03400762800000SUN CITY FIRE DISTRICT                                          4                              04013     62000024                  .1                                         133      95     07
03400780800000FOUNTAIN HILLS SAN DIST                                         4                              04013     62000080                  .2739                                      131      95     03
03400840700000BULLHEAD PEST ABATEMENT DISTRICT                                4                              04015     41200032                  .02                                        111      95     03
03400861500000PINION PINES FIRE DISTRICT                                      4                              04015     41200024                  .02                                        111      95     07
03400900200000WOODRUFF IRRIG DIST                                             4                              04017           64                  .02                                        311      95     03
03401061600000SABINO VISTA FIRE DISTRICT                                      4                              04019     85200024                  .02                                        111      95     07
03401100200000PINAL CO ELECTRICAL DIST NO 2                                   4                              04021     62000092                  1                                          131      94     03
03401100300000PINAL CO ELECTRICAL DIST 3                                      4                              04021     62000092                  1                                          111      95     03
03401100400000PINAL CO ELECTRICAL DISTRICT 4                                  4                              04021     62000092                  1                                          111      95     03
03401100500000PINAL CO ELECTRICAL DIST NO 5                                   4                              04021     62000092                  1                                          111      95     03
03401160100000PINAL ELECTRIC DIST 6                                           4                              04021     62000092                  1                                          111      95     03
03401170400000MARICOPA STANFIELD IRRIGATION & DRAINAGE DISTRICT               4                              04021     62000091                  1                                          131      95     03
03401180100000CENTRAL ARIZONA IRRIGATION AND DRAINAGE DIST                    4                              04021     62000064                  .7815                                      122      94     03
03401370100000CENTRAL YAVAPAI HOSPITAL DIST.                                  4                              04025           40                  1                                          111      95     03
03401400300000WELLTON MOHAWK IRRI DRGE DIST                                   4                              04027     93600064                  1                                          122      95     03
03401400500000YUMA IRRIGATION DISTRICT                                        4                              04027     93600064                  .1972                                      121      93     03
03500101200000SANDERS UNIF SCH DIST 18                                        4                              04001           1224       03       .0833                                      133      95     06
03500140200000VERNON ELEM SCHOOL DIST 9                                       4                              04001           50         01       1                                          133      95     06
03500200200000ASH CREEK SCH DIST 53                                           4                              04003           71         01       .02                                        133      95     06
03500200700000SIERRA VISTA UNIF SCH DIST 68                                   4                              04003           7267       03       .4871                                      233      95     06
03500202700000WILLCOX SCH DIST 13                                             4                              04003           1496       03       .0841                                      233      95     06
03500270100000COCHISE CO CMNTY COLLEGE DIST                                   4                              04003           2579       04       1                                          133      95     06
03500300100000FLAGSTAFF SCH DIST 1                                            4                              04005     26200012264      03       1                                          111      II     06
03500300600000WILLIAMS SCH DIST 2                                             4                              04005     262000789        03       .0466                                      133      95     06
03500400500000PAYSON UNIFIED SCH DIST 10                                      4                              04007           2428       03       .3142                                      133      95     06
03500500200000EASTERN ARIZ JR COL DIST                                        4                              04009           2609       04       1                                          122      95     06
03500500600000SAFFORD SCH DIST 1                                              4                              04009           2952       03       .2436                                      133      95     06
03500700200000ALHAMBRA SCH DIST 68                                            4                              04013     6200009961       01       .4523                                      133      95     06
03500700800000CARTWRIGHT SCH DIST 83                                          4                              04013     62000015663      01       1                                          111      II     06
03500701000000CHANDLER UNIFIED SCHOOL DIST 80                                 4                              04013     62000014262      03       1                                          111      II     06
03500701100000CREIGHTON SCH DIST 14                                           4                              04013     6200006900       01       .599                                       133      95     06
03500701600000GILBERT SCHOOL DISTRICT 41                                      4                              04013     62000015440      03       1                                          111      II     06
03500701700000GLENDALE SCH DIST 40                                            4                              04013     6200009962       01       1                                          133      95     06
03500701800000GLENDALE UNION H SCH DIST 205                                   4                              04013     62000012973      02       1                                          133      95     06
03500702100000KYRENE SCH DIST 28                                              4                              04013     62000015848      01       1                                          111      II     06
03500702700000MESA UNIFIED SCHOOL DIST                                        4                              04013     62000069160      03       1                                          111      II     06
03500703200000OSBORN SCH DIST 8                                               4                              04013     6200003888       01       .5852                                      133      95     06
03500703500000PEORIA UNIFIED SCH DIST 11                                      4                              04013     62000025809      03       1                                          111      II     06
03500703700000PHOENIX UNION H SCH DIST 210                                    4                              04013     62000020686      02       1                                          133      95     06
03500704000000ROOSEVELT SCH DIST 66                                           4                              04013     62000011428      01       1                                          111      II     06
03500704100000SCOTTSDALE SCHOOL DIST 48                                       4                              04013     62000022520      03       1                                          133      95     06
03500704300000PARADISE VALLEY SCH DIST 69 AND 217                             4                              04013     62000031302      03       1                                          133      95     06
03500704400000TEMPE ELEM SCH DIST 3                                           4                              04013     62000013460      01       1                                          111      II     06
03500704500000TEMPE UNION HIGH SCH DIST 213                                   4                              04013     62000010409      02       1                                          133      95     06
03500705000000WASHINGTON SCH DIST 6                                           4                              04013     62000023337      01       1                                          111      II     06
03500750100000DEER VALLEY SCH DIST 97                                         4                              04013     62000019199      03       1                                          111      II     06
03500770100000MARICOPA CO CMNTY COLLEGE DIST                                  4                              04013     62000063064      04       1                                          111      II     06
03500800500000KINGMAN SCH DIST 4                                              4                              04015     4120004960       01       .2685                                      133      95     06
03500800800000MOHAVE CO UNION H SCH DIST 30                                   4                              04015     4120001715       02       .1535                                      233      95     06
03500820100000COLORADO R UNION HIGH SCH DIST 2                                4                              04015     4120001610       02       1                                          122      95     06
03500880100000MOHAVE COMMUNITY COLLEGE                                        4                              04015     4120002226       04       1                                          133      95     06
03500900500000KAYENTA UNIFIED SCH DIST 27                                     4                              04017           2749       03       .624                                       133      95     06
03500900600000CEDAR UNIF SCH DIST 25                                          4                              04017           662        01       .1145                                      111      II     06
03500900700000BLUE RIDGE UNIFIED SCH DT 32                                    4                              04017           2090       03       .401                                       111      II     06
03500940100000PINON SCHOOL UNIF SCH DIST 4                                    4                              04017           879        01       1                                          111      II     06
03500940200000HEBER OVERGAARD SCHOOL DISTRICT                                 4                              04017           523        03       1                                          333      95     06
03500960200000NORTHLAND PIONEER COLLEGE                                       4                              04017           2064       04       1                                          122      95     06
03501000200000AMPHITHEATER SCHOOL DIST 10                                     4                              04019     85200015257      03       1                                          133      95     06
03501000600000FLOWING WELLS SCHOOL DISTRICT 8                                 4                              04019     8520006103       03       .2872                                      133      95     06
03501001000000MARANA UNIFIED DIST NO 6                                        4                              04019     85200010060      03       1                                          133      95     06
03501001500000SUNNYSIDE SCHOOL DISTRICT 12                                    4                              04019     85200014323      03       1                                          133      95     06
03501001800000TUCSON UNIFIED SCHOOL DISTRICT 1                                4                              04019     85200062624      03       1                                          111      II     06
03501080100000PIMA CO JR COLLEGE DIST                                         4                              04019     85200014157      04       1                                          233      95     06
03501100100000APACHE JCT SCHOOL DIST 43                                       4                              04021     6200004367       03       .5907                                      133      95     06
03501101300000RAY SCHOOL DISTRICT 3                                           4                              04021     620000932        03       .0732                                      111      II     06
03501101900000TOLTEC SCH DIST 22                                              4                              04021     620000637        01       .0689                                      111      II     06
03501180100000CENTRAL ARIZONA COLLEGE                                         4                              04021     6200002198       04       1                                          133      95     06
03501300900000COTTONWOOD-OAK CREEK ELEMENTARY DIST NO 6                       4                              04025           2178       01       .7052                                      111      II     06
03501301300000HUMBOLDT UNIFIED SCH DIST 22                                    4                              04025           3936       03       .2023                                      133      95     06
03501380100000YAVAPAI COLLEGE                                                 4                              04025           2493       04       1                                          233      95     06
03501400400000CRANE SCH DIST 13                                               4                              04027     9360005107       01       .2965                                      111      II     06
03501401700000YUMA UNION HIGH SCH DIST 70                                     4                              04027     9360007205       02       .8036                                      111      II     06
