01000000000000ALABAMA                                                         3                              01              4246205             1                                                   95       
02000000000000ALASKA                                                          4                              02              602545              1                                                   95       
03000000000000ARIZONA                                                         4                              04              4305016             1                                                   95       
04000000000000ARKANSAS                                                        3                              05              2484761             1                                                   95       
05000000000000CALIFORNIA                                                      4                              06              31565480            1                                                   95       
06000000000000COLORADO                                                        4                              08              3747560             1                                                   95       
07000000000000CONNECTICUT                                                     1                              09              3270740             1                                                   95       
08000000000000DELAWARE                                                        3                              10              717041              1                                                   95       
10000000000000FLORIDA                                                         3                              12              14184155            1                                                   95       
11000000000000GEORGIA                                                         3                              13              7208676             1                                                   95       
12000000000000HAWAII                                                          4                              15              1179198             1                                                   95       
13000000000000IDAHO                                                           4                              16              1166112             1                                                   95       
14000000000000ILLINOIS                                                        2                              17              11790379            1                                                   95       
15000000000000INDIANA                                                         2                              18              5796948             1                                                   95       
16000000000000IOWA                                                            2                              19              2843074             1                                                   95       
17000000000000KANSAS                                                          2                              20              2563618             1                                                   95       
18000000000000KENTUCKY                                                        3                              21              3856877             1                                                   95       
19000000000000LOUISIANA                                                       3                              22              4338072             1                                                   95       
20000000000000MAINE                                                           1                              23              1238572             1                                                   95       
21000000000000MARYLAND                                                        3                              24              5038912             1                                                   95       
22000000000000MASSACHUSETTS                                                   1                              25              6071078             1                                                   95       
23000000000000MICHIGAN                                                        2                              26              9537948             1                                                   95       
24000000000000MINNESOTA                                                       2                              27              4614613             1                                                   95       
25000000000000MISSISSIPPI                                                     3                              28              2696183             1                                                   95       
26000000000000MISSOURI                                                        2                              29              5319335             1                                                   95       
27000000000000MONTANA                                                         4                              30              870351              1                                                   95       
28000000000000NEBRASKA                                                        2                              31              1639213             1                                                   95       
29000000000000NEVADA                                                          4                              32              1533478             1                                                   95       
30000000000000NEW HAMPSHIRE                                                   1                              33              1148244             1                                                   95       
31000000000000NEW JERSEY                                                      1                              34              7949506             1                                                   95       
32000000000000NEW MEXICO                                                      4                              35              1689849             1                                                   95       
33000000000000NEW YORK                                                        1                              36              18190562            1                                                   95       
34000000000000NORTH CAROLINA                                                  3                              37              7202335             1                                                   95       
35000000000000NORTH DAKOTA                                                    2                              38              641506              1                                                   95       
36000000000000OHIO                                                            2                              39              11134032            1                                                   95       
37000000000000OKLAHOMA                                                        3                              40              3274870             1                                                   95       
38000000000000OREGON                                                          4                              41              3148855             1                                                   95       
39000000000000PENNSYLVANIA                                                    1                              42              12060312            1                                                   95       
40000000000000RHODE ISLAND                                                    1                              44              991701              1                                                   95       
41000000000000SOUTH CAROLINA                                                  3                              45              3667000             1                                                   95       
42000000000000SOUTH DAKOTA                                                    2                              46              729500              1                                                   95       
43000000000000TENNESSEE                                                       3                              47              5246723             1                                                   95       
44000000000000TEXAS                                                           3                              48              18801380            1                                                   95       
45000000000000UTAH                                                            4                              49              1958313             1                                                   95       
46000000000000VERMONT                                                         1                              50              584776              1                                                   95       
47000000000000VIRGINIA                                                        3                              51              6615234             1                                                   95       
48000000000000WASHINGTON                                                      4                              53              5447720             1                                                   95       
49000000000000WEST VIRGINIA                                                   3                              54              1825256             1                                                   95       
50000000000000WISCONSIN                                                       2                              55              5122100             1                                                   95       
51000000000000WYOMING                                                         4                              56              479192              1                                                   95       
