01000000000000ALABAMA                                                         3                              01              4287178  96         1                                                   97       
02000000000000ALASKA                                                          4                              02              604966   96         1                                                   97       
03000000000000ARIZONA                                                         4                              04              4434340  96         1                                                   97       
04000000000000ARKANSAS                                                        3                              05              2506293  96         1                                                   97       
05000000000000CALIFORNIA                                                      4                              06              31857646 96         1                                                   97       
06000000000000COLORADO                                                        4                              08              3816179  96         1                                                   97       
07000000000000CONNECTICUT                                                     1                              09              3267293  96         1                                                   97       
08000000000000DELAWARE                                                        3                              10              723475   96         1                                                   97       
10000000000000FLORIDA                                                         3                              12              14418917 96         1                                                   97       
11000000000000GEORGIA                                                         3                              13              7334274  96         1                                                   97       
12000000000000HAWAII                                                          4                              15              1182948  96         1                                                   97       
13000000000000IDAHO                                                           4                              16              1187597  96         1                                                   97       
14000000000000ILLINOIS                                                        2                              17              11845316 96         1                                                   97       
15000000000000INDIANA                                                         2                              18              5828090  96         1                                                   97       
16000000000000IOWA                                                            2                              19              2848033  96         1                                                   97       
17000000000000KANSAS                                                          2                              20              2579149  96         1                                                   97       
18000000000000KENTUCKY                                                        3                              21              3882071  96         1                                                   97       
19000000000000LOUISIANA                                                       3                              22              4340818  96         1                                                   97       
20000000000000MAINE                                                           1                              23              1238566  96         1                                                   97       
21000000000000MARYLAND                                                        3                              24              5060296  96         1                                                   97       
22000000000000MASSACHUSETTS                                                   1                              25              6085395  96         1                                                   97       
23000000000000MICHIGAN                                                        2                              26              9730925  96         1                                                   97       
24000000000000MINNESOTA                                                       2                              27              4648596  96         1                                                   97       
25000000000000MISSISSIPPI                                                     3                              28              2710750  96         1                                                   97       
26000000000000MISSOURI                                                        2                              29              5363669  96         1                                                   97       
27000000000000MONTANA                                                         4                              30              876684   96         1                                                   97       
28000000000000NEBRASKA                                                        2                              31              1648696  96         1                                                   97       
29000000000000NEVADA                                                          4                              32              1600810  96         1                                                   97       
30000000000000NEW HAMPSHIRE                                                   1                              33              1160213  96         1                                                   97       
31000000000000NEW JERSEY                                                      1                              34              8001850  96         1                                                   97       
32000000000000NEW MEXICO                                                      4                              35              1711256  96         1                                                   97       
33000000000000NEW YORK                                                        1                              36              18134226 96         1                                                   97       
34000000000000NORTH CAROLINA                                                  3                              37              7309055  96         1                                                   97       
35000000000000NORTH DAKOTA                                                    2                              38              642633   96         1                                                   97       
36000000000000OHIO                                                            2                              39              11162797 96         1                                                   97       
37000000000000OKLAHOMA                                                        3                              40              3295315  96         1                                                   97       
38000000000000OREGON                                                          4                              41              3196313  96         1                                                   97       
39000000000000PENNSYLVANIA                                                    1                              42              12040084 96         1                                                   97       
40000000000000RHODE ISLAND                                                    1                              44              988283   96         1                                                   97       
41000000000000SOUTH CAROLINA                                                  3                              45              3716645  96         1                                                   97       
42000000000000SOUTH DAKOTA                                                    2                              46              737561   96         1                                                   97       
43000000000000TENNESSEE                                                       3                              47              5307381  96         1                                                   97       
44000000000000TEXAS                                                           3                              48              19091207 96         1                                                   97       
45000000000000UTAH                                                            4                              49              2017573  96         1                                                   97       
46000000000000VERMONT                                                         1                              50              586461   96         1                                                   97       
47000000000000VIRGINIA                                                        3                              51              6666167  96         1                                                   97       
48000000000000WASHINGTON                                                      4                              53              5519525  96         1                                                   97       
49000000000000WEST VIRGINIA                                                   3                              54              1820407  96         1                                                   97       
50000000000000WISCONSIN                                                       2                              55              5146199  96         1                                                   97       
51000000000000WYOMING                                                         4                              56              480011   96         1                                                   97       
