01000000000000ALABAMA                                                         3                              01                435199998                                                             98
02000000000000ALASKA                                                          4                              02                 61401098                                                             98
03000000000000ARIZONA                                                         4                              04                466863198                                                             98
04000000000000ARKANSAS                                                        3                              05                253830398                                                             98
05000000000000CALIFORNIA                                                      4                              06               3266655098                                                             98
06000000000000COLORADO                                                        4                              08                397097198                                                             98
07000000000000CONNECTICUT                                                     1                              09                327406998                                                             98
08000000000000DELAWARE                                                        3                              10                 74360398                                                             98
10000000000000FLORIDA                                                         3                              12               1491598098                                                             98
11000000000000GEORGIA                                                         3                              13                764220798                                                             98
12000000000000HAWAII                                                          4                              15                119300198                                                             98
13000000000000IDAHO                                                           4                              16                122868498                                                             98
14000000000000ILLINOIS                                                        2                              17               1204532698                                                             98
15000000000000INDIANA                                                         2                              18                589919598                                                             98
16000000000000IOWA                                                            2                              19                286244798                                                             98
17000000000000KANSAS                                                          2                              20                262906798                                                             98
18000000000000KENTUCKY                                                        3                              21                393649998                                                             98
19000000000000LOUISIANA                                                       3                              22                436896798                                                             98
20000000000000MAINE                                                           1                              23                124425098                                                             98
21000000000000MARYLAND                                                        3                              24                513480898                                                             98
22000000000000MASSACHUSETTS                                                   1                              25                614713298                                                             98
23000000000000MICHIGAN                                                        2                              26                981724298                                                             98
24000000000000MINNESOTA                                                       2                              27                472541998                                                             98
25000000000000MISSISSIPPI                                                     3                              28                275209298                                                             98
26000000000000MISSOURI                                                        2                              29                543855998                                                             98
27000000000000MONTANA                                                         4                              30                 88045398                                                             98
28000000000000NEBRASKA                                                        2                              31                166271998                                                             98
29000000000000NEVADA                                                          4                              32                174689898                                                             98
30000000000000NEW HAMPSHIRE                                                   1                              33                118504898                                                             98
31000000000000NEW JERSEY                                                      1                              34                811501198                                                             98
32000000000000NEW MEXICO                                                      4                              35                173693198                                                             98
33000000000000NEW YORK                                                        1                              36               1817530198                                                             98
34000000000000NORTH CAROLINA                                                  3                              37                754649398                                                             98
35000000000000NORTH DAKOTA                                                    2                              38                 63824498                                                             98
36000000000000OHIO                                                            2                              39               1120949398                                                             98
37000000000000OKLAHOMA                                                        3                              40                334671398                                                             98
38000000000000OREGON                                                          4                              41                328197498                                                             98
39000000000000PENNSYLVANIA                                                    1                              42               1200145198                                                             98
40000000000000RHODE ISLAND                                                    1                              44                 98848098                                                             98
41000000000000SOUTH CAROLINA                                                  3                              45                383596298                                                             98
42000000000000SOUTH DAKOTA                                                    2                              46                 73817198                                                             98
43000000000000TENNESSEE                                                       3                              47                543062198                                                             98
44000000000000TEXAS                                                           3                              48               1975961498                                                             98
45000000000000UTAH                                                            4                              49                209975898                                                             98
46000000000000VERMONT                                                         1                              50                 59088398                                                             98
47000000000000VIRGINIA                                                        3                              51                679134598                                                             98
48000000000000WASHINGTON                                                      4                              53                568926398                                                             98
49000000000000WEST VIRGINIA                                                   3                              54                181115698                                                             98
50000000000000WISCONSIN                                                       2                              55                522350098                                                             98
51000000000000WYOMING                                                         4                              56                 48090798                                                             98
