01000000000000ALABAMA                                                         3                              01                436986299                                                             99
02000000000000ALASKA                                                          4                              02                 61950099                                                             99
03000000000000ARIZONA                                                         4                              04                477833299                                                             99
04000000000000ARKANSAS                                                        3                              05                255137399                                                             99
05000000000000CALIFORNIA                                                      4                              06               3314512199                                                             99
06000000000000COLORADO                                                        4                              08                405613399                                                             99
07000000000000CONNECTICUT                                                     1                              09                328203199                                                             99
08000000000000DELAWARE                                                        3                              10                 75353899                                                             99
10000000000000FLORIDA                                                         3                              12               1511124499                                                             99
11000000000000GEORGIA                                                         3                              13                778824099                                                             99
12000000000000HAWAII                                                          4                              15                118549799                                                             99
13000000000000IDAHO                                                           4                              16                125170099                                                             99
14000000000000ILLINOIS                                                        2                              17               1212837099                                                             99
15000000000000INDIANA                                                         2                              18                594290199                                                             99
16000000000000IOWA                                                            2                              19                286941399                                                             99
17000000000000KANSAS                                                          2                              20                265405299                                                             99
18000000000000KENTUCKY                                                        3                              21                396082599                                                             99
19000000000000LOUISIANA                                                       3                              22                437203599                                                             99
20000000000000MAINE                                                           1                              23                125304099                                                             99
21000000000000MARYLAND                                                        3                              24                517163499                                                             99
22000000000000MASSACHUSETTS                                                   1                              25                617516999                                                             99
23000000000000MICHIGAN                                                        2                              26                986377599                                                             99
24000000000000MINNESOTA                                                       2                              27                477550899                                                             99
25000000000000MISSISSIPPI                                                     3                              28                276861999                                                             99
26000000000000MISSOURI                                                        2                              29                546833899                                                             99
27000000000000MONTANA                                                         4                              30                 88277999                                                             99
28000000000000NEBRASKA                                                        2                              31                166602899                                                             99
29000000000000NEVADA                                                          4                              32                180925399                                                             99
30000000000000NEW HAMPSHIRE                                                   1                              33                120113499                                                             99
31000000000000NEW JERSEY                                                      1                              34                814341299                                                             99
32000000000000NEW MEXICO                                                      4                              35                173984499                                                             99
33000000000000NEW YORK                                                        1                              36               1819660199                                                             99
34000000000000NORTH CAROLINA                                                  3                              37                765078999                                                             99
35000000000000NORTH DAKOTA                                                    2                              38                 63366699                                                             99
36000000000000OHIO                                                            2                              39               1125665499                                                             99
37000000000000OKLAHOMA                                                        3                              40                335804499                                                             99
38000000000000OREGON                                                          4                              41                331615499                                                             99
39000000000000PENNSYLVANIA                                                    1                              42               1199401699                                                             99
40000000000000RHODE ISLAND                                                    1                              44                 99081999                                                             99
41000000000000SOUTH CAROLINA                                                  3                              45                388573699                                                             99
42000000000000SOUTH DAKOTA                                                    2                              46                 73313399                                                             99
43000000000000TENNESSEE                                                       3                              47                548353599                                                             99
44000000000000TEXAS                                                           3                              48               2004414199                                                             99
45000000000000UTAH                                                            4                              49                212983699                                                             99
46000000000000VERMONT                                                         1                              50                 59374099                                                             99
47000000000000VIRGINIA                                                        3                              51                687291299                                                             99
48000000000000WASHINGTON                                                      4                              53                575636199                                                             99
49000000000000WEST VIRGINIA                                                   3                              54                180692899                                                             99
50000000000000WISCONSIN                                                       2                              55                525044699                                                             99
51000000000000WYOMING                                                         4                              56                 47960299                                                             99
